:020000040000FA
:10000000600400206D020000710200007302000015
:100010007502000077020000790200000000000075
:100020000000000000000000000000007B02000053
:100030007D020000000000007F020000810200003D
:10004000830200008302000083020000830200009C
:10005000830200008302000083020000830200008C
:10006000830200008302000083020000830200007C
:10007000830200008302000083020000830200006C
:10008000830200008302000083020000830200005C
:10009000830200008302000083020000830200004C
:1000A000830200008302000083020000830200003C
:1000B000830200008302000083020000830200002C
:1000C000830200008302000083020000830200001C
:1000D000830200008302000083020000830200000C
:1000E00083020000830200008302000083020000FC
:1000F00083020000830200008302000083020000EC
:1001000083020000830200008302000083020000DB
:1001100083020000830200008302000083020000CB
:1001200083020000830200008302000083020000BB
:1001300083020000830200008302000083020000AB
:1001400000000000000000000000000000000000AF
:10015000830200008302000083020000830200008B
:10016000000000000000000000000000000000008F
:10017000000000000000000000000000000000007F
:10018000000000000000000000000000000000006F
:10019000000000000000000000000000000000005F
:1001A000000000000000000000000000000000004F
:1001B000830200008302000083020000830200002B
:1001C000830200008302000083020000830200001B
:1001D000830200008302000083020000830200000B
:1001E00083020000830200008302000083020000FB
:1001F00083020000830200008302000083020000EB
:10020000830200008302000083020000000000005F
:1002100083020000830200008302000083020000CA
:1002200083020000830200008302000083020000BA
:1002300083020000830200008302000083020000AA
:10024000830200008302000083020000830200009A
:10025000830200008302000083020000830200008A
:1002600083020000830200008302000000F00AB84D
:10027000FEE7FEE7FEE7FEE7FEE7FEE7FEE7FEE756
:10028000FEE7FEE700F002F800F02CF80AA090E884
:10029000000C82448344AAF10107DA4501D100F041
:1002A00021F8AFF2090EBAE80F0013F0010F18BFE2
:1002B000FB1A43F0010318476C0400007C040000A3
:1002C0000023002400250026103A28BF78C1FBD85F
:1002D000520728BF30C148BF0B6070471FB51FBD14
:1002E00010B510BD00F029F81146FFF7F7FF00F038
:1002F00089F900F047F803B4FFF7F2FF03BC00F000
:100300004FF8000072B6704762B67047EFF3108086
:1003100072B6704780F31088704730BF704702484C
:100320000249014A024B704760000020600400202F
:1003300060000020704770477047754600F02CF849
:10034000AE4605006946534620F00700854618B0C2
:1003500020B5FFF7E4FFBDE820404FF000064FF066
:1003600000074FF000084FF0000BAC46ACE8C009A6
:10037000ACE8C009ACE8C009ACE8C00921F007014D
:100380008D46704710B50446AFF300802046BDE8A7
:100390001040FFF7B0BF0000004870470000002089
:1003A00001491820ABBEFEE726000200704700009E
:1003B00081B04EF20810C4F20F00016841F0200134
:1003C00001600068009045F22051C4F2020144F23D
:1003D0004B30C4F64F40086045F22451C4F202018C
:1003E000086840F00E00086045F22851C4F202018E
:1003F000086820F00E00086045F22C51C4F202019A
:1004000008684FF6F0729043086045F20041C4F26C
:100410000201086840F00E00086045F22041C4F275
:100420000201086820F00E00086045F21C51C4F279
:100430000201086840F00E00086001B0704700003B
:1004400081B08DF80300FFE74CF21800C4F2000001
:1004500000688006002801D5FFE7F5E79DF8030056
:100460004CF20001C4F20001086001B070470000C6
:1004700080B582B00190FFE70198007840B1FFE7B6
:1004800001980078FFF7DCFF019801300190F3E755
:1004900002B080BDFFE74DF21800C4F20000006812
:1004A000C006002801D5FFE7F5E74DF20000C4F2D1
:1004B00000000068C0B2704780B54EF20412C4F26A
:1004C0000F02106840F0020010604EF20811C4F2F2
:1004D0000F01086840F002000860106840F0010059
:1004E0001060086840F0010008604CF2300EC4F261
:1004F000000EDEF8000020F00100CEF800004CF203
:100500002400C4F20000112202604CF22800C4F260
:1005100000004FF0170CC0F800C04CF22C01C4F2E0
:10052000000170200860DEF8001040F2013319432A
:10053000CEF8001044F2204EC4F2000EDEF8001097
:1005400041F00301CEF8001044F21C5EC4F2000E2C
:10055000DEF8001041F00301CEF8001044F22C5EEA
:10056000C4F2000EDEF8001062F30701CEF80010AE
:1005700044F2285EC4F2000EDEF8001021F0030100
:10058000CEF800104DF23001C4F20001D1F800E0C5
:100590002EF0010EC1F800E04DF2240EC4F2000E60
:1005A000CEF800204DF2280EC4F2000ECEF800C0A6
:1005B0004DF22C0CC4F2000CCCF800000868184373
:1005C000086045F22041C4F20001086840F00300D1
:1005D000086045F21C51C4F20001086840F00300B5
:1005E000086045F22C51C4F20001086862F307006C
:1005F000086045F22851C4F20001086820F00300A9
:10060000086080BD80B584B000200390FFF754FFE0
:10061000FFF7CEFE40F2F260C0F20000FFF728FFC5
:10062000FFE7FFF737FF8DF80B009DF80B00FFF792
:1006300007FF0D20FFF704FF0A20FFF701FF9DF8D9
:100640000B00423801460191372800F25080019991
:10065000DFE801F0234D464D4D2A4D4D4D4D4D4D9A
:100660004D4D3F4D1C4D4D4D4D384D314D4D4D4D2A
:100670004D4D4D4D234D464D4D2A4D4D4D4D4D4DFE
:100680004D4D3F4D1C4D4D4D4D384D3145F2FC31DA
:10069000C4F20201022008602AE045F2FC31C4F2F3
:1006A00002010420086023E045F2FC31C4F202019B
:1006B000082008601CE045F2FC31C4F202010A2067
:1006C000086015E045F2FC31C4F202010E2008601A
:1006D0000EE045F2FC31C4F202010620086007E09A
:1006E00045F2FC31C4F202010020086000E0FFE79F
:1006F00097E73E3E3E2057656C636F6D6520746FD3
:1007000020426C7565746F6F746820436F6E7472ED
:100710006F6C6C6564204C454420417070203C3CFB
:100720003C0A0D00340700000000002060040000B7
:04073000C002000003
:040000050000026D88
:00000001FF
