:020000040000FA
:10000000600400206D020000710200007302000015
:100010007502000077020000790200000000000075
:100020000000000000000000000000007B02000053
:100030007D020000000000007F020000810200003D
:10004000830200008302000083020000830200009C
:10005000830200008302000083020000830200008C
:10006000830200008302000083020000830200007C
:10007000830200008302000083020000830200006C
:10008000830200008302000083020000830200005C
:10009000830200008302000083020000830200004C
:1000A000830200008302000083020000830200003C
:1000B000830200008302000083020000830200002C
:1000C000830200008302000083020000830200001C
:1000D000830200008302000083020000830200000C
:1000E00083020000830200008302000083020000FC
:1000F00083020000830200008302000083020000EC
:1001000083020000830200008302000083020000DB
:1001100083020000830200008302000083020000CB
:1001200083020000830200008302000083020000BB
:1001300083020000830200008302000083020000AB
:1001400000000000000000000000000000000000AF
:10015000830200008302000083020000830200008B
:10016000000000000000000000000000000000008F
:10017000000000000000000000000000000000007F
:10018000000000000000000000000000000000006F
:10019000000000000000000000000000000000005F
:1001A000000000000000000000000000000000004F
:1001B000830200008302000083020000830200002B
:1001C000830200008302000083020000830200001B
:1001D000830200008302000083020000830200000B
:1001E00083020000830200008302000083020000FB
:1001F00083020000830200008302000083020000EB
:10020000830200008302000083020000000000005F
:1002100083020000830200008302000083020000CA
:1002200083020000830200008302000083020000BA
:1002300083020000830200008302000083020000AA
:10024000830200008302000083020000830200009A
:10025000830200008302000083020000830200008A
:1002600083020000830200008302000000F00AB84D
:10027000FEE7FEE7FEE7FEE7FEE7FEE7FEE7FEE756
:10028000FEE7FEE700F002F800F02CF80AA090E884
:10029000000C82448344AAF10107DA4501D100F041
:1002A00021F8AFF2090EBAE80F0013F0010F18BFE2
:1002B000FB1A43F001031847800600009006000077
:1002C0000023002400250026103A28BF78C1FBD85F
:1002D000520728BF30C148BF0B6070471FB51FBD14
:1002E00010B510BD00F0A0F81146FFF7F7FF00F0C1
:1002F0000DFA00F0BEF803B4FFF7F2FF03BC00F004
:10030000C5F8000072B6704762B67047EFF3108010
:1003100072B6704780F31088704730BF704702484C
:100320000249014A024B704760000020600400202F
:1003300060000020032A40F2308010F0030C00F02F
:10034000158011F8013BBCF1020F624498BF11F80F
:1003500001CB00F8013B38BF11F8013BA2F10402C8
:1003600098BF00F801CB38BF00F8013B11F0030340
:1003700000F02880083AC0F0088051F8043B083AA1
:1003800051F804CBA0E80810F5E7121D5CBF51F846
:10039000043B40F8043BAFF30080D20724BF11F8C0
:1003A000013B11F801CB48BF11F8012B24BF00F825
:1003B000013B00F801CB48BF00F8012B70477047A4
:1003C0007047704710B5203AC0F00B80B1E8185064
:1003D000A0E81850B1E81850A0E81850203ABFF42F
:1003E000F5AF5FEA027C24BFB1E81850A0E81850CE
:1003F00044BF18C918C0BDE810405FEA827C24BF22
:1004000051F8043B40F8043B08BF7047D20728BFAF
:1004100031F8023B48BF11F8012B28BF20F8023BFE
:1004200048BF00F8012B7047754600F02BF8AE4628
:1004300005006946534620F00700854618B020B5F0
:10044000FFF76DFFBDE820404FF000064FF00007BA
:100450004FF000084FF0000BAC46ACE8C009ACE828
:10046000C009ACE8C009ACE8C00921F007018D461D
:10047000704710B50446AFF300802046BDE8104039
:10048000FFF739BF004870470000002001491820DD
:10049000ABBEFEE72600020070470000FFE74DF20A
:1004A0001800C4F200000068C006002801D5FFE76C
:1004B000F5E74DF20000C4F200000068C0B27047DA
:1004C00080B582B0019000208DF80300FFE7FFF7B0
:1004D000E5FF01999DF8032088549DF80300013041
:1004E0008DF80300FFE701999DF80300084410F818
:1004F000010C0A28EBD1FFE79DF8030002388DF8C4
:10050000030001999DF803200020885402B080BDAB
:100510004EF20411C4F20F01086840F002000860B6
:100520004EF20811C4F20F01086840F002000860A2
:100530004DF23001C4F20001086820F001000860AB
:100540004DF22402C4F200021A2010604DF228027B
:10055000C4F20002032010604DF22C02C4F200022B
:1005600070201060086840F201321043086045F2C4
:100570002041C4F20001086840F00300086045F221
:100580001C51C4F20001086840F00300086045F205
:100590002C51C4F200010868112262F307000860C0
:1005A00045F22851C4F20001086820F003000860F9
:1005B0007047000081B08DF80300FFE74DF218008E
:1005C000C4F2000000688006002801D5FFE7F5E7C7
:1005D0009DF803004DF20001C4F20001086001B073
:1005E0007047000080B582B00190FFE70198007865
:1005F00040B1FFE701980078FFF7DCFF0198013078
:100600000190F3E702B080BD4EF20411C4F20F0175
:10061000086840F0010008604EF20811C4F20F01B2
:10062000086840F0010008604CF23001C4F200019B
:10063000086820F0010008604CF22400C4F20000B9
:10064000112202604CF22803C4F200031720186044
:100650004CF22C03C4F2000370201860086840F2CA
:1006600001331843086044F22041C4F200010868D5
:1006700040F00300086044F21C51C4F20001086815
:1006800040F00300086044F22C51C4F200010868F5
:1006900062F30700086044F22851C4F200010868C0
:1006A00020F003000860704780B50D2000F004F8CA
:1006B0000A2000F001F880BD81B08DF80300FFE74B
:1006C0004CF21800C4F2000000688006002801D532
:1006D000FFE7F5E79DF803004CF20001C4F20001CA
:1006E000086001B07047000080B582B00190FFE75C
:1006F0000198007840B1FFE701980078FFF7DCFF30
:10070000019801300190F3E702B080BD80B5CCB014
:10071000002006904B9040F6BE01C0F200010DF1A2
:10072000950078220592FFF705FE059A40F64601EE
:10073000C0F200010DF11D00FFF7FCFDFFF764FFA3
:10074000FFF7E6FE06988DF80D01FFE79DF80D0115
:10075000032832DCFFE79DF80D01C0EB00110DF11D
:100760009500049000EB4100FFF7BEFF04989DF850
:100770000D11C1EB011100EB4100FFF733FFFFE763
:100780004DF21800C4F2000000680007002801D5EF
:10079000FFE7F5E70DF587700390FFF791FE0398EB
:1007A000FFF7A2FFFFF780FFFFF77EFFFFE79DF84F
:1007B0000D0101308DF80D01C8E700208DF80D0105
:1007C000FFE79DF80D0103283BDCFFE79DF80D01D5
:1007D000C0EB00110DF11D00029000EB4100FFF78E
:1007E00083FF02989DF80D11C1EB011100EB410050
:1007F000FFF7F8FEFFE74DF21800C4F200000068B2
:100800000007002801D5FFE7F5E70DF58770019097
:10081000FFF756FE0198FFF767FF0198FFF750FEBC
:100820002020FFF749FF0198FFF75EFFFFF73CFF2D
:10083000FFF73AFFFFE79DF80D0101308DF80D013C
:10084000BFE7FFE7FEE741542B4E414D453F0D0A00
:100850000000000000000000000000000000000098
:100860000000000041542B554152543F0D0A000036
:100870000000000000000000000000000000000078
:10088000000041542B505357443F0D0A0000000014
:100890000000000000000000000000000000000058
:1008A00041542B524F4C453F0D0A00000000000000
:1008B00000000000000000000000000000004154A3
:1008C0002B4E414D453D47524F5550350D0A0000C6
:1008D00000000000000000000000000041542B5503
:1008E0004152543D35373630302C302C310D0A0012
:1008F0000000000000000000000041542B5053573E
:10090000443D353133383030380D0A0000000000E6
:10091000000000000000000041542B524F4C453DA8
:10092000300D0A0000000000000000000000000080
:100930000000000000000000480900000000002046
:0809400060040000C002000089
:040000050000026D88
:00000001FF
