:020000040000FA
:10000000700400206D020000710200007302000005
:100010007502000077020000790200000000000075
:100020000000000000000000000000007B02000053
:100030007D020000000000007F0200006508000053
:10004000830200008302000083020000830200009C
:10005000830200008302000083020000830200008C
:10006000830200008302000083020000830200007C
:10007000830200008302000083020000830200006C
:10008000830200008302000083020000830200005C
:10009000830200008302000083020000830200004C
:1000A000830200008302000083020000830200003C
:1000B000830200008302000083020000830200002C
:1000C000830200008302000083020000830200001C
:1000D000830200008302000083020000830200000C
:1000E00083020000830200008302000083020000FC
:1000F00083020000830200008302000083020000EC
:1001000083020000830200008302000083020000DB
:1001100083020000830200008302000083020000CB
:1001200083020000830200008302000083020000BB
:1001300083020000830200008302000083020000AB
:1001400000000000000000000000000000000000AF
:10015000830200008302000083020000830200008B
:10016000000000000000000000000000000000008F
:10017000000000000000000000000000000000007F
:10018000000000000000000000000000000000006F
:10019000000000000000000000000000000000005F
:1001A000000000000000000000000000000000004F
:1001B000830200008302000083020000830200002B
:1001C000830200008302000083020000830200001B
:1001D000830200008302000083020000830200000B
:1001E00083020000830200008302000083020000FB
:1001F00083020000830200008302000083020000EB
:10020000830200008302000083020000000000005F
:1002100083020000830200008302000083020000CA
:1002200083020000830200008302000083020000BA
:1002300083020000830200008302000083020000AA
:10024000830200008302000083020000830200009A
:10025000830200008302000083020000830200008A
:1002600083020000830200008302000000F00AB84D
:10027000FEE7FEE7FEE7FEE7FEE7FEE7FEE7FEE756
:10028000FEE7FEE700F002F800F02CF80AA090E884
:10029000000C82448344AAF10107DA4501D100F041
:1002A00021F8AFF2090EBAE80F0013F0010F18BFE2
:1002B000FB1A43F001031847B8110000C8110000F1
:1002C0000023002400250026103A28BF78C1FBD85F
:1002D000520728BF30C148BF0B6070471FB51FBD14
:1002E00010B510BD00F029F81146FFF7F7FF00F038
:1002F00089FC00F047F803B4FFF7F2FF03BC00F0FD
:100300004FF8000072B6704762B67047EFF3108086
:1003100072B6704780F31088704730BF704702484C
:100320000249014A024B704770000020700400200F
:1003300070000020704770477047754600F02CF839
:10034000AE4605006946534620F00700854618B0C2
:1003500020B5FFF7E4FFBDE820404FF000064FF066
:1003600000074FF000084FF0000BAC46ACE8C009A6
:10037000ACE8C009ACE8C009ACE8C00921F007014D
:100380008D46704710B50446AFF300802046BDE8A7
:100390001040FFF7B0BF0000004870470000002089
:1003A00001491820ABBEFEE726000200704700009E
:1003B00080B541F2D930C0F2000000F0ABFB00F094
:1003C00085F941F22830C0F2000000F0A3FB00F0F4
:1003D0007DF941F21A40C0F2000000F09BFB00F0F2
:1003E00075F941F2FE30C0F2000000F093FB00F01E
:1003F0006DF941F23440C0F2000000F08BFB00F0D8
:1004000065F941F22D30C0F2000000F083FB00F0EE
:100410005DF980BD80B586B0FFE700F057F941F285
:100420006040C0F2000000F075FB00F04FF941F2AF
:100430006530C0F2000000F06DFB00F047F941F2BA
:100440000230C0F2000000F065FB00F03FF941F21D
:100450002820C0F2000000F05DFB00F037F941F207
:100460005840C0F2000000F055FB00F02FF900F0FA
:100470002DF900F04BFA0146039131280AD0FFE72D
:100480000398322800F0AD80FFE70398332800F08E
:10049000138113E141F2AA30C0F2000000F03AFBF0
:1004A00000F014F941F2CB10C0F2000000F032FB72
:1004B00000F00CF941F2AD10C0F2000000F02AFB90
:1004C00000F004F900F002F900F020FA8DF81700AE
:1004D0009DF9170000F054FB40F26801C2F20001E0
:1004E00008709DF91700623801460291172800F242
:1004F00077800299DFE801F0334D0C747426747430
:100500007474747474745A74197474747467744061
:1005100045F2FC31C4F202010020086041F2812062
:10052000C0F2000000F0F6FA5AE045F2FC31C4F2E5
:1005300002010220086041F28D20C0F2000000F0AC
:10054000E9FA4DE045F2FC31C4F2020108200860EE
:1005500041F2DF20C0F2000000F0DCFA40E045F29A
:10056000FC31C4F202010420086041F2BF20C0F255
:10057000000000F0CFFA33E045F2FC31C4F2020192
:100580000A20086041F2F020C0F2000000F0C2FA38
:1005900026E045F2FC31C4F202010C20086041F271
:1005A000CF20C0F2000000F0B5FA19E045F2FC31AE
:1005B000C4F202010620086041F29C20C0F2000053
:1005C00000F0A8FA0CE045F2FC31C4F202010E2062
:1005D000086041F2AE20C0F2000000F09BFAFFE795
:1005E0006CE000F073F841F2FB10C0F2000000F084
:1005F00091FA00F06BF841F25420C0F2000000F0D4
:1006000089FA00F063F800F093F9049000F05EF8C6
:10061000049878B9FFE745F2FC31C4F202010020EA
:1006200008604EF21001CEF20001086820F00100CF
:1006300008602FE04EF21001CEF20001086840F091
:1006400001000860049841F288310191484300F0AC
:1006500092FC4CF6CD42CCF6CC424CF6CC43C3F6E1
:10066000EC7300F09BFC00220023C4F2590300F05D
:10067000FBFA00F053FC0246019840F26001C2F21E
:1006800000010A600968401A40F26401C2F20001E8
:100690000860FFE700F01AF841F29810C0F200007D
:1006A00000F038FA049800F047FA41F21A30C0F22C
:1006B000000000F02FFA01E006B080BD00F006F85F
:1006C000ABE60000704700007047000080B50D20C9
:1006D00000F008FA0A2000F005FA80BD81B04EF261
:1006E0007001C4F20F010091086840F000400860FA
:1006F000086840F4006008604EF26002C4F20F0225
:10070000106820F4F8601060106800F5A8601060B0
:10071000086820F07000086008680860086820F425
:1007200000500860086840F08040086008680722B0
:1007300062F39C500860FFE74EF25000C4F20F00D5
:1007400000684006002801D4FFE7F5E74EF270018B
:10075000C4F20F01086820F40060086001B070471F
:1007600081B04EF20810C4F20F00016841F0200180
:1007700001600068009045F22051C4F2020144F289
:100780004B30C4F64F40086040F26402C2F20002EF
:1007900040F6C410106040F26001C2F2000108602F
:1007A00045F22451C4F20201086840F00E000860CE
:1007B00045F22851C4F20201086820F00E000860DA
:1007C00045F22C51C4F2020108684FF6F0739843C9
:1007D000086045F20041C4F20201086840F00E00D2
:1007E000086045F20851C4F20201086840F00E00AA
:1007F000086045F22041C4F20201086820F00E00B2
:10080000086045F21C51C4F20201086840F00E0075
:10081000086045F2FC31C4F20201086820F00E00C5
:1008200008604EF21001CEF200010020086012684C
:10083000013A4EF21403CEF200031A604EF218028F
:10084000CEF2000210604EF62052CEF20002106886
:10085000022363F35F701060086840F007000860CF
:1008600001B070474EF21001CEF20001086820F08E
:100870000100086045F2FC30C4F20200006840F25A
:100880006801C2F200010978084218D0FFE740F27F
:100890006800C2F20000027845F2FC31C4F20201A5
:1008A00008689043086040F26400C2F200000068EB
:1008B00001384EF21401CEF20001086017E040F258
:1008C0006800C2F20000027845F2FC31C4F2020175
:1008D00008681043086040F26000C2F2000000683F
:1008E00001384EF21401CEF200010860FFE74EF22B
:1008F0001801CEF20001002008604EF21001CEF285
:100900000001086840F0010008607047FFE74CF202
:100910001800C4F200000068C006002801D5FFE7F7
:10092000F5E74CF20000C4F200000068C0B2704766
:1009300080B584B0002003900290FFF7E7FF8DF8A8
:100940000700FFE79DF907000D283AD0FFE79DF962
:100950000700302816DBFFE79DF90700392811DC76
:10096000FFE7039800EB80019DF9070000EB4100D1
:10097000303803900298013002909DF8070000F093
:10098000B1F819E09DF90700082814D1FFE7029893
:1009900088B1FFE703984CF6CD41CCF6CC41A0FBE3
:1009A0000110C00803900298013802909DF80700DA
:1009B00000F098F8FFE7FFE7FFF7A8FF8DF80700C2
:1009C000C0E7039804B080BD81B08DF803008DF8B6
:1009D00002104EF20411C4F20F01086840F0010049
:1009E00008604EF20811C4F20F01086840F00100DF
:1009F00008604CF23001C4F20001002008604CF2A3
:100A00002401C4F20001362008604CF22801C4F22F
:100A10000001102008604CF22C01C4F2000170208B
:100A200008609DF803009DF802100843C00760B3FA
:100A3000FFE74EF20441CEF200010868052262F39E
:100A40004F3008604EF20011CEF200012020086005
:100A50009DF80300C00748B1FFE74CF23801C4F22B
:100A60000001086840F010000860FFE79DF80200F0
:100A7000C00748B1FFE74CF23801C4F20001086832
:100A800040F020000860FFE7FFE74CF23001C4F2BD
:100A90000001086840F201321043086044F220412E
:100AA000C4F20001086840F00300086044F21C51E1
:100AB000C4F20001086840F00300086044F22C51C1
:100AC000C4F200010868112262F30700086044F2D2
:100AD0002851C4F20001086820F00300086001B04A
:100AE0007047000081B08DF80300FFE74CF218005A
:100AF000C4F2000000688006002801D5FFE7F5E792
:100B00009DF803004CF20001C4F20001086001B03E
:100B10007047000080B582B00190FFE7019800782F
:100B200040B1FFE701980078FFF7DCFF0198013042
:100B30000190F3E702B080BD80B582B001900198CA
:100B40000A2816D3FFE701984CF6CD41CCF6CC41EC
:100B50000091A0FB0110C008FFF7EEFF009901987B
:100B6000A0FB0121C90801EB8101A0EB410001902C
:100B7000FFE701983030C0B2FFF7B4FF02B080BD8C
:100B800082B08DF806009DF906006238014600919A
:100B900017282ED80099DFE801F0181C102C2C140F
:100BA0002C2C2C2C2C2C2C2C282C0C2C2C2C2C20B5
:100BB0002C2402208DF807001FE000208DF807008C
:100BC0001BE008208DF8070017E004208DF80700CF
:100BD00013E00C208DF807000FE00E208DF80700C1
:100BE0000BE00A208DF8070007E006208DF80700CB
:100BF00003E000208DF80700FFE79DF8070002B032
:100C00007047000080B584B0002002900390FFF789
:100C100079FBFFF763FDFFF7A3FDFFF723FE0299C2
:100C20000846FFF7D1FEFFF76FFBFFE7FFF7C0FBBA
:100C3000FFF76CFE01460191312808D0FFE70198CB
:100C4000322807D0FFE70198332806D008E0FFF7E5
:100C5000E1FB06E0FFF736FD03E0FFF735FD00E0BE
:100C6000FFE7FFF733FDE1E72DE9C04130B4DFF8DE
:100C7000A4C23CEA111418BF3CEA131400F0ED8042
:100C80001CEA111481EA030544EAD57418BF1CEA72
:100C9000131500F0C880A4EB050404F17F7404F57B
:100CA00000344FF0004545EAC12145EAC32341EA3B
:100CB000505143EA52534FEAC0204FEAC2229942B0
:100CC00008BF904200F09D804FEA13650FF2441672
:100CD000765D4FEA134506FB05F7C7F1807706FB03
:100CE00007F74FEAD737A7FB03687642A7FB06CE84
:100CF000C8F5803838BFA8F1010807FB08E6A6FB55
:100D0000028C4FF0000EE6FB03CEDCF1000CCEF1BE
:100D1000004E38BFAEF1010EA6FB0C584FF0000795
:100D2000E6FB0E87A1FB08C6A0FB07CE16EB0E065E
:100D30004FF0000545F10005E1FB076515F1E04EB8
:100D40007EBFA4F580345FEA46066D4116F1800748
:100D500045F100054FEA172747EA05674FEA1525D1
:100D60004FEA0666A6F1DE46B6F1805F20D9384626
:100D700005EBC47124F0010C01EB0C11BCF1FE6F0A
:100D800002D8F0BCBDE8008124425CBF01F5801EA2
:100D90009EEAC47F02D4F0BCBDE80081244200F189
:100DA0003980A1F1C041F0BCBDE8004100F0EEB9CE
:100DB0004FEAD02040EA41504FEAD1214FEAD222F7
:100DC00042EA43524FEAD323A7FB028607FB03669E
:100DD00005FB02661EEA0E0F58BFA6EB0056B6EBE7
:100DE00000564FEA520E4EEAC37E18EB0E0E56EB3B
:100DF000530EBCD518EB02085E417F1C55F100056F
:100E0000B5E74FF480154FF000074FF000064FF0A4
:100E10000008ACE701F1C04101F000414FF00000D3
:100E2000F0BCBDE800810CEA131511EA0C1F00D0DC
:100E30000CE013EA0C1F00F026804FF0000081EA5E
:100E4000030101F00041F0BCBDE80081F0BCBDE849
:100E5000004181EA030100F099B9F0BCBDE800410E
:100E600070B500F045F900BF097EFC3E00F007B800
:100E70004FF0000081EA030101F00041704781EA70
:100E8000030100F083B9F0BCBDE8004122494FF0F6
:100E900000007047FFFDFBF9F7F5F4F2F0EEEDEB23
:100EA000E9E8E6E4E3E1E0DEDDDBDAD8D7D5D4D368
:100EB000D1D0CFCDCCCBCAC8C7C6C5C4C2C1C0BFB4
:100EC000BEBDBCBBBAB9B8B7B6B5B4B3B2B1B0AFBA
:100ED000AEADACABAAA9A8A8A7A6A5A4A3A3A2A19E
:100EE000A09F9F9E9D9C9C9B9A9999989797969559
:100EF00095949393929191908F8F8E8E8D8C8C8BF5
:100F00008B8A89898888878786858584848383827C
:100F1000828181800000FF070000F87F4FEA1153B3
:100F2000A3F58063D3F11E03A8BFD3F1200C08DB27
:100F30004FF0004242EAC12252EA505232FA03F024
:100F4000704709420BD4102BC4BF0020704703F533
:100F5000787CBCF1FF3F05D04FF0FF3070474FF079
:100F60000000704770B500F0C3F800BF49922480BC
:100F700000207047F0E7B0FA80F310FA03F10AD0CE
:100F8000C3F11D0303F580634FEA03524FEA41505A
:100F900002EBD12170474FF00000704770B5DFF8C9
:100FA00048C11CEA111E1EBF1CEA13159EEA0C0F55
:100FB00095EA0C0F00F06F8081EA03044EEAD47EBC
:100FC000AE4421EA4C1123EA4C1341F4801143F45E
:100FD0008013AEF17F7EA1FB024CA0FB03653619A6
:100FE00055EB0C05A1FB034C4CF10003A0FB021CCC
:100FF00016EB0C06654153F10003094218BF46F099
:10100000010613F4007F0BD14FEA03314FEA05309C
:1010100041EA155140EA165034036FF003020AE02A
:101020004FEAC3214FEAC52041EA555140EA5650E4
:10103000F4026FF0020202EB2E4201EB025585EA48
:10104000CE710AD05FEA440C18BF24F0004450F17E
:10105000000041F1000120EAD47040F2FE7C6245BC
:1010600000D270BDA84214BF4FF080444FF04044FE
:10107000002E08BF0024BEF1806FA8BFA1F1C041BF
:10108000BDE8704080F2828001F1C04101F0004172
:101090004FF0000070470CEA13159EEA0C0F18BFC2
:1010A00095EA0C0F06D081EA030E4FF000000EF017
:1010B000004170BD00F01CF88900013E00F007B847
:1010C00000F009B84FEA430C5FEA5C5C08D081EAA3
:1010D000030100F05BB84FEA410C5FEA5C5CF6D1BB
:1010E00002494FF0000070470000FF070000F87F42
:1010F0000EF1020E2EF0030E5EF8046B364205D49C
:10110000012A43EB030515F5001F12D8012841EB16
:10111000010C1CF5001F0CD80ED14FEAD17C0CEB52
:101120004C0C0CF1020C15F5001F08BF4CEBD37CE6
:1011300004E04FF0080C01E04FEAD37C0CEB4C05C7
:1011400026FA05F606F00706B6F1040C06D20EEBF9
:10115000860CBDE870404CF0010C6047DFE80CF0F5
:10116000090B02024FF00041A1F500214FF00000F1
:1011700070BD19461046012851EB010418BFD4F583
:10118000001484BF002001F0004170BD0808A0F5E4
:1011900000114FEA310170474C45442069732064C7
:1011A0006973706C617965642061742000632863E1
:1011B00079616E292C207028707572706C65292CED
:1011C0002077287768697465292900286428646174
:1011D000726B292C207228726564292C206728677D
:1011E0007265656E292C206228626C7565292C2039
:1011F000792879656C6C6F77292C004368616E677C
:101200006520746865206272696768746E657373BF
:10121000206F66207468652063757272656E742035
:101220004C45442873292E00322E204368616E6796
:101230006520746865206272696768746E6573738F
:10124000206F662063757272656E74204C45442869
:1012500073292E00506C6561736520656E7465722C
:10126000206120646563696D616C206E756D6265D7
:10127000722066726F6D203020746F203130302EF6
:10128000004C4544206973206F66662E00526564E9
:10129000204C4544206973206F6E2E00507572708B
:1012A0006C65204C4544206973206F6E2E00576892
:1012B000697465204C4544206973206F6E2E00428E
:1012C0006C7565204C4544206973206F6E2E004379
:1012D00079616E204C4544206973206F6E2E004763
:1012E0007265656E204C4544206973206F6E2E0038
:1012F00059656C6C6F77204C4544206973206F6E84
:101300002E00312E2043686F6F736520616E204C74
:10131000454420636F6C6F722E00252062726967EE
:1013200068746E6573732E004D43553100506C65C3
:101330006173652063686F6F7365206120636F6DF3
:101340006D756E69636174696F6E206D6F64652081
:1013500028656E7465722031206F722032206F72A2
:101360002033293A00506C656173652073656C65A4
:10137000637420616E206F7074696F6E2066726F87
:101380006D2074686520666F6C6C6F77696E67207E
:101390006C6973742028656E7465722031206F72D9
:1013A0002032206F722033293A00506C65617365DA
:1013B0002073656C656374206120636F6C6F7220AD
:1013C00066726F6D2074686520666F6C6C6F7769EC
:1013D0006E67206C6973743A0057656C636F6D6556
:1013E00020746F2043454353203434372050726FAC
:1013F0006A6563742032202D205541525400093211
:101400002E094D4355313C2D3E4D43553220436FFF
:101410006C6F7220576865656C0009312E09504366
:101420003C2D3E4D435531204C454420436F6E7456
:10143000726F6C0009332E0950433C2D3E4D4355CD
:10144000313C2D3E4D4355323C2D3E5043204368A8
:10145000617420526F6F6D00332E204578697400DF
:101460004D6F64656C2031204D656E750000000085
:10147000801400000000002070040000C002000082
:040000050000026D88
:00000001FF
