:030000000208AB48
:0C08AB00787FE4F6D8FD75810B02080090
:10089B007597DE7597AD75A51075E34075A8202289
:1008000012089B750A00750B01E58030E208750837
:10081000007509FF8006750800750980E4F583F509
:1008200082E50B25E0F50BE50A33F50AE50BF4F557
:1008300090E4FAFBC3EB9509EA95085014E4FCFD3B
:100840000DBD00010CEDF44C70F60BBB00010A80ED
:10085000E3A3E5826407458370C7E4F583F582C3AB
:10086000E5829407E5839400509FE50AC313F50AD7
:10087000E50B13F50BF4F590E4FAFBC3EB9509EAED
:1008800095085014E4FCFD0DBD00010CEDF44C7016
:0B089000F60BBB00010A80E3A380C44C
:00000001FF
