:020000040000FA
:10000000680400206D02000071020000730200000D
:100010007502000077020000790200000000000075
:100020000000000000000000000000007B02000053
:100030007D020000000000007F020000A508000013
:1000400083020000830200008302000041050000DB
:10005000830200008302000083020000830200008C
:10006000830200008302000083020000830200007C
:10007000830200008302000083020000830200006C
:10008000830200008302000083020000830200005C
:10009000830200008302000083020000830200004C
:1000A000830200008302000083020000830200003C
:1000B00083020000830200004D060000830200005E
:1000C000830200008302000083020000830200001C
:1000D000830200008302000083020000830200000C
:1000E00083020000830200008302000083020000FC
:1000F00083020000830200008302000083020000EC
:1001000083020000830200008302000083020000DB
:1001100083020000830200008302000083020000CB
:1001200083020000830200008302000083020000BB
:1001300083020000830200008302000083020000AB
:1001400000000000000000000000000000000000AF
:10015000830200008302000083020000830200008B
:10016000000000000000000000000000000000008F
:10017000000000000000000000000000000000007F
:10018000000000000000000000000000000000006F
:10019000000000000000000000000000000000005F
:1001A000000000000000000000000000000000004F
:1001B000830200008302000083020000830200002B
:1001C000830200008302000083020000830200001B
:1001D000830200008302000083020000830200000B
:1001E00083020000830200008302000083020000FB
:1001F00083020000830200008302000083020000EB
:10020000830200008302000083020000000000005F
:1002100083020000830200008302000083020000CA
:1002200083020000830200008302000083020000BA
:1002300083020000830200008302000083020000AA
:10024000830200008302000083020000830200009A
:10025000830200008302000083020000830200008A
:1002600083020000830200008302000000F00AB84D
:10027000FEE7FEE7FEE7FEE7FEE7FEE7FEE7FEE756
:10028000FEE7FEE700F002F800F02CF80AA090E884
:10029000000C82448344AAF10107DA4501D100F041
:1002A00021F8AFF2090EBAE80F0013F0010F18BFE2
:1002B000FB1A43F001031847A4200000B4200000FB
:1002C0000023002400250026103A28BF78C1FBD85F
:1002D000520728BF30C148BF0B6070471FB51FBD14
:1002E00010B510BD00F029F81146FFF7F7FF00F038
:1002F000F5FA00F047F803B4FFF7F2FF03BC00F093
:100300004FF8000072B6704762B67047EFF3108086
:1003100072B6704780F31088704730BF704702484C
:100320000249014A024B704768000020680400201F
:1003300068000020704770477047754600F02CF841
:10034000AE4605006946534620F00700854618B0C2
:1003500020B5FFF7E4FFBDE820404FF000064FF066
:1003600000074FF000084FF0000BAC46ACE8C009A6
:10037000ACE8C009ACE8C009ACE8C00921F007014D
:100380008D46704710B50446AFF300802046BDE8A7
:100390001040FFF7B0BF0000004870470000002089
:1003A00001491820ABBEFEE726000200704700009E
:1003B0004EF20811C4F20F01086840F020000860F6
:1003C00045F22051C4F2020144F24B30C4F64F40D2
:1003D000086045F22451C4F20201086840F011009F
:1003E000086045F20041C4F20201086820F01100E3
:1003F000086045F22041C4F20201086820F01100B3
:10040000086045F21C51C4F20201086840F0110076
:10041000086045F22C51C4F20201086800F00F1088
:10042000086045F22851C4F20201086820F011006A
:10043000086045F21051C4F20201086840F0110052
:10044000086045F20441C4F20201086820F011007E
:10045000086045F20841C4F20201086820F011006A
:10046000086045F20C41C4F20201086820F0110056
:10047000086045F21C41C4F202011120086045F2F7
:100480001041C4F20201086840F0110008604EF209
:100490001C41CEF200010868802262F31740086018
:1004A0004EF20011CEF20001086840F08040086072
:1004B0007047000081B04EF20810C4F20F000168CE
:1004C00041F0020101600068009045F22851C4F239
:1004D0000001086820F03F00086045F22C51C4F28A
:1004E0000001086800F07F40086045F20041C4F256
:1004F0000001086840F03F00086045F22041C4F266
:100500000001086820F03F00086045F21C51C4F269
:100510000001086840F03F00086001B0704700002B
:1005200081B047F25800C0F202000090FFE7009847
:1005300020B1FFE7009801380090F8E701B070475C
:1005400080B582B000200190FFE7019841F6134189
:10055000C0F20101884205D8FFE7FFE701980130AA
:100560000190F2E700F0E8F800F0B2F9002863D15A
:10057000FFE700F08FF9012812D1FFE740F2650094
:10058000C2F200000078C0EBC00142F2EC20C0F2E1
:10059000000000EB8100C069800900F04DF94AE0DD
:1005A00000F078F9022812D1FFE740F26500C2F2AC
:1005B00000000078C0EBC00142F2EC20C0F2000065
:1005C00000EB8100006A800900F036F932E000F0AB
:1005D00061F9042812D1FFE740F26500C2F2000081
:1005E0000078C0EBC00142F2EC20C0F2000000EB4A
:1005F0008100406A800900F01FF91AE000F04AF912
:10060000082812D1FFE740F26500C2F2000000782E
:10061000C0EBC00142F2EC20C0F2000000EB810010
:10062000806A800900F008F902E000F02BF9FFE78A
:10063000FFE7FFE7FFE7FFE747F21C41C4F20001D5
:10064000086840F00F00086002B080BD80B582B03D
:1006500000200190FFE7019841F61341C0F201012B
:10066000884205D8FFE7FFE7019801300190F2E7E3
:1006700045F21440C4F202000068C00600280AD502
:10068000FFE745F21C41C4F202011020086001207E
:1006900000F00AFAFFE745F21440C4F202000068D5
:1006A000C00748B3FFE745F21C41C4F20201012034
:1006B000086000F00DF9012803D1FFE700F01EF8F3
:1006C00019E000F005F9A8B9FFE740F26501C2F2B0
:1006D000000108780130087008784AF6AB22CAF6A3
:1006E000AA22A0FB022303F0FE0202EB5302801AAF
:1006F0000870FFE7FFE7FFE702B080BD80B500F0BC
:10070000C1F840F26201C2F200010020087040F21C
:100710006101C2F2000108780130087008784AF6D9
:10072000AB22CAF6AA22A0FB022303F0FE0202EBD0
:100730005302801A087080BD4EF20811C4F20F01F6
:10074000086840F00800086047F22051C4F2000138
:1007500044F24B30C4F64F40086047F22451C4F2D3
:100760000001086840F00F00086047F20041C4F241
:100770000001086820F00F00086047F22041C4F231
:100780000001086820F00F00086047F21C51C4F215
:100790000001086840F00F00086047F22C51C4F2D5
:1007A0000001086880B2086047F22851C4F20001D5
:1007B000086820F00F00086047F21051C4F20001F1
:1007C000086840F00F00086047F20441C4F20001DD
:1007D000086820F00F00086047F20841C4F20001E9
:1007E000086840F00F00086047F20C41C4F20001B5
:1007F000086840F00F00086047F21C41C4F2000195
:100800000F20086047F21041C4F20001086840F070
:100810000F0008604EF20041CEF2000108680A2283
:1008200062F31F7008604EF20011CEF200010868FA
:1008300040F008000860704781B0009040F263010A
:10084000C2F20001002008704EF21001CEF2000149
:100850000860009A013A4EF21403CEF200031A60C7
:100860004EF21802CEF2000210604EF62052CEF286
:1008700000021068202363F31F60106007200860E7
:1008800001B070474EF21001CEF200010020086066
:100890007047000047F2FC30C4F2000001680F20EE
:1008A0008843704740F26300C2F2000001780131D2
:1008B00001F03F010170017840F6C420C0F2000051
:1008C000405C45F2FC31C4F2000108607047000052
:1008D00040F26000C2F200000078704780B582B03C
:1008E00000200190FFF70EFDFFF7E4FDFFF760FD2C
:1008F000FFF722FFFFF708FDFFE7FFF7E9FF0146DB
:10090000009120B1FFE70098012803D005E0FFF730
:1009100004FD03E000F004F800E0FFE7EDE700006D
:1009200080B582B040F26201C2F20001002008707E
:10093000FFE740F26100C2F200000078C0EB002146
:1009400040F60430C0F2000000EBC10040F262014A
:10095000C2F20001097800EBC1000179002001908A
:1009600041B1FFE7FFF7B4FF0138B0FA80F040096A
:100970000190FFE70198C007002879D0FFE740F217
:100980006100C2F200000078C0EB002140F60430A4
:10099000C0F2000000EBC10040F26201C2F20001AF
:1009A000097850F83100FF2803D1FFE7FFF76AFF0D
:1009B00025E040F26100C2F200000078C0EB0021A7
:1009C00040F60430C0F2000000EBC10040F26201CA
:1009D000C2F20001097850F8310040F26501C2F21C
:1009E00000010978C1EBC101014442F2EC20C0F2E0
:1009F000000050F821008009FFF71EFFFFE740F2DA
:100A00006401C2F2000100200870FFE740F26400B8
:100A1000C2F20000007840F26101C2F200010978E0
:100A2000C1EB012240F60431C0F2000101EBC2012A
:100A300040F26202C2F20002127801EBC2010979AF
:100A400088420BDAFFE7FFF76BFDFFE740F2640136
:100A5000C2F20001087801300870D7E7FFF712FFF3
:100A600040F26201C2F2000108780130087060E7CC
:100A700040F26401C2F2000100200870FFE740F27A
:100A80006400C2F2000000780E280BDCFFE7FFF7DD
:100A900047FDFFE740F26401C2F20001087801302F
:100AA0000870ECE702B080BD81B08DF803009DF8BE
:100AB000032040F26001C2F2000108785040087043
:100AC00001B07047202326292C2F313436383A3B89
:100AD0003D3E3E3F3F3F3E3E3D3B3A383634312F70
:100AE0002C292623201D1A1714110F0C0A0806059D
:100AF0000302020101010202030506080A0C0F119C
:100B000014171A1DFF00000004000000040000007C
:100B100002000000040000000200000005000000C8
:100B200004000000040000000400000007000000B2
:100B3000040000000600000004000000FF000000A8
:100B40000400000004000000020000000400000097
:100B50000200000005000000040000000400000086
:100B6000040000000800000004000000070000006E
:100B700004000000FF00000004000000040000006A
:100B80000200000004000000020000000B00000052
:100B9000040000000900000004000000070000003D
:100BA0000400000006000000040000000500000032
:100BB00008000000FF000000040000000A00000020
:100BC000020000000A00000002000000090000000E
:100BD00004000000070000000400000008000000FE
:100BE000040000000700000008000000FF000000F3
:100BF00000000000000000000000000000000000F5
:100C000000000000000000000000000000000000E4
:100C100000000000000000000000000000000000D4
:100C200000000000000000000000000000000000C4
:1012F000000000000000000000000000FF000000EF
:1013000004000000020000000400000001000000D2
:1013100004000000000000000400000001000000C4
:1013200004000000020000000400000002000000B1
:10133000040000000200000008000000010000009E
:101340000400000001000000040000000100000093
:10135000080000000200000004000000040000007B
:10136000040000000400000008000000020000006B
:101370000400000001000000040000000000000064
:101380000400000001000000040000000200000052
:101390000400000002000000040000000200000041
:1013A000080000000100000004000000010000002F
:1013B0000400000002000000040000000100000022
:1013C000040000000000000008000000FF00000012
:1013D000000000000000000000000000000000000D
:1013E00000000000000000000000000000000000FD
:1013F00000000000000000000000000000000000ED
:1014000000000000000000000000000000000000DC
:101AF00000000000FF0000000400000000000000E3
:101B000004000000000000000400000004000000C9
:101B100004000000040000000400000005000000B4
:101B200004000000050000000400000004000000A4
:101B30000800000003000000040000000300000093
:101B40000400000002000000040000000200000089
:101B5000040000000100000004000000010000007B
:101B60000400000000000000080000000400000065
:101B70000400000004000000040000000300000056
:101B80000400000003000000040000000200000048
:101B9000040000000200000004000000010000003A
:101BA0000800000004000000040000000400000021
:101BB0000400000003000000040000000300000017
:101BC0000400000002000000040000000200000009
:101BD00004000000010000000800000000000000F8
:101BE00004000000000000000400000004000000E9
:101BF00004000000040000000400000005000000D4
:101C000004000000050000000400000004000000C3
:101C100008000000030000000400000003000000B2
:101C200004000000020000000400000002000000A8
:101C3000040000000100000004000000010000009A
:101C4000040000000000000008000000FF00000089
:101C50000000000000000000000000000000000084
:101C60000000000000000000000000000000000074
:101C70000000000000000000000000000000000064
:101C80000000000000000000000000000000000054
:1022E00000000000000000000000000019DD0100F7
:1022F0002CA90100CA7A010025650100E13E010018
:10230000171C010009FD00008CEE000096D40000AF
:1023100064BD000016B30000709F00000C8E00002A
:10232000847E0000727700006A6A0000CE5E0000C2
:102330007C590000B84F000006470000463F0000EF
:10234000BA3B000034350000662F0000BE2C0000B0
:10235000DC27000082230000A41F00006C23000083
:0C2360000000002068040000C002000023
:040000050000026D88
:00000001FF
