:03000000020B05EB
:0C0B0500787FE4F6D8FD75810C02080032
:100AF5007597DE7597AD75A5FF75E34075A820223E
:100A92005390FB5390FD8F80439001E4F50BC3E527
:100AA2000B9402748094805016E4F50CC3E50C9408
:100AB200FF748094805004050C80F1050B80DF5395
:030AC20090FE2281
:100A4E007F34120A5F7F30120A5F7F2E120A5F7F99
:010A5E003562
:100A5F004390045390FD8F80439001E4F50BC3E561
:100A6F000B9402748094805016E4F50CC3E50C943B
:100A7F00FF748094805004050C80F1050B80DF53C8
:030A8F0090FE22B4
:03000B00020AC521
:100AC500C0E04390205388EF758A10758CEC4388FD
:100AD500105388BFE50AF58BE509F58D438840E598
:100AE5008830E7FB5388BF53887F5390DFD0E032CF
:10080000120AF57589115388EF758A10758CEC43BF
:1008100088107F38120A927F06120A927F0C120A01
:10082000927F01120A927F2D120A5F7F34120A5FB3
:100830000F120A5F75A882E50875F00CA4FFAEF0F0
:10084000C374019FF50A74FF9EF509E59020E30744
:100850000508E59030E3FBE59020E4071508E590F6
:1008600030E4FBAF087E00D3EF9414748094804092
:10087000047D0180027D00C3EE6480948050047F7B
:100880000180027F00EF4D6003E4F508E508641481
:10089000700E7F01120A927F34120A5F0F120A5FF4
:1008A000E508641370087F01120A92120A4EE508E7
:1008B0006412700F7F01120A927F33120A5F7F3633
:1008C000120A5FE5086411700F7F01120A927F33EC
:1008D000120A5F7F31120A55E5086410700F7F011C
:1008E000120A927F32120A5F7F37120A5FE50864AC
:1008F0000F700D7F01120A927F32120A5F120A55A1
:10090000E508640E700F7F01120A927F31120A5FB0
:100910007F38120A5FE508640D700F7F01120A929A
:100920007F31120A5F7F33120A55E508640C700AA2
:100930007F01120A927F39120A5FE508640B700A80
:100940007F01120A927F34120A55E508640A700A80
:100950007F01120A927F30120A5FE5086409700F66
:100960007F01120A927F2D120A5F7F34120A55E529
:10097000086408700F7F01120A927F2D120A5F7FB0
:1009800039120A5FE508640770147F01120A927F2A
:100990002D120A5F7F31120A5F7F33120A55E50874
:1009A000640670147F01120A927F2D120A5F7F3154
:1009B000120A5F7F38120A5FE508640570127F0132
:1009C000120A927F2D120A5F7F32120A5F120A55B5
:1009D000E508640470147F01120A927F2D120A5FE9
:1009E0007F32120A5F7F37120A5FE50864037014D2
:1009F0007F01120A927F2D120A5F7F33120A5F7FF6
:100A000031120A55E508640270147F01120A927FC0
:100A10002D120A5F7F33120A5F7F36120A5FE508E4
:100A20006401700D7F01120A927F2D120A5F120A73
:100A30004EE50860030208377F01120A927F2D12EB
:0E0A40000A5F7F34120A5F0F120A5F02083746
:00000001FF
