:0300000002088F64
:0C088F00787FE4F6D8FD758109020800AE
:10087F007597DE7597AD75A51075E34075A82022A5
:1008000012087F7F01E4FDFC7B01FA7589014388B2
:1008100010E58830E5FB5388EF0DBD00010CE58045
:1008200030E208750800750905800675080075092D
:100830000AC3ED9509EC95084037E58030E106EFF5
:10084000F4F59080028F90EB4A6006EF25E0FF8080
:1008500004EFC313FFEFF58275830064017005FA9E
:100860007B01800AE582648045837002FAFBE4FC28
:0F087000FD758A4F758C9C5388DF4388108092EA
:00000001FF
