:020000040000FA
:10000000680400206D02000071020000730200000D
:100010007502000077020000790200000000000075
:100020000000000000000000000000007B02000053
:100030007D020000000000007F020000810200003D
:10004000830200008302000083020000830200009C
:10005000830200008302000083020000830200008C
:10006000830200008302000083020000830200007C
:10007000830200008302000083020000830200006C
:10008000830200008302000083020000830200005C
:10009000830200008302000083020000830200004C
:1000A000830200008302000083020000830200003C
:1000B000830200008302000083020000830200002C
:1000C000830200008302000083020000830200001C
:1000D000830200008302000083020000830200000C
:1000E00083020000830200008302000083020000FC
:1000F00083020000830200008302000083020000EC
:1001000083020000830200008302000083020000DB
:1001100083020000830200008302000083020000CB
:1001200083020000830200008302000083020000BB
:1001300083020000830200008302000083020000AB
:1001400000000000000000000000000000000000AF
:10015000830200008302000083020000830200008B
:10016000000000000000000000000000000000008F
:10017000000000000000000000000000000000007F
:10018000000000000000000000000000000000006F
:10019000000000000000000000000000000000005F
:1001A000000000000000000000000000000000004F
:1001B000830200008302000083020000830200002B
:1001C000830200008302000083020000830200001B
:1001D000830200008302000083020000830200000B
:1001E00083020000830200008302000083020000FB
:1001F00083020000830200008302000083020000EB
:10020000830200008302000083020000000000005F
:1002100083020000830200008302000083020000CA
:1002200083020000830200008302000083020000BA
:1002300083020000830200008302000083020000AA
:10024000830200008302000083020000830200009A
:10025000830200008302000083020000830200008A
:1002600083020000830200008302000000F00AB84D
:10027000FEE7FEE7FEE7FEE7FEE7FEE7FEE7FEE756
:10028000FEE7FEE700F002F800F02CF80AA090E884
:10029000000C82448344AAF10107DA4501D100F041
:1002A00021F8AFF2090EBAE80F0013F0010F18BFE2
:1002B000FB1A43F0010318475407000064070000CD
:1002C0000023002400250026103A28BF78C1FBD85F
:1002D000520728BF30C148BF0B6070471FB51FBD14
:1002E00010B510BD00F029F81146FFF7F7FF00F038
:1002F00049FA00F047F803B4FFF7F2FF03BC00F03F
:100300004FF8000072B6704762B67047EFF3108086
:1003100072B6704780F31088704730BF704702484C
:100320000249014A024B704768000020680400201F
:1003300068000020704770477047754600F02CF841
:10034000AE4605006946534620F00700854618B0C2
:1003500020B5FFF7E4FFBDE820404FF000064FF066
:1003600000074FF000084FF0000BAC46ACE8C009A6
:10037000ACE8C009ACE8C009ACE8C00921F007014D
:100380008D46704710B50446AFF300802046BDE8A7
:100390001040FFF7B0BF0000004870470000002089
:1003A00001491820ABBEFEE726000200704700009E
:1003B0004EF20811C4F20F01086840F01000086006
:1003C000FFE74EF20810C4F20F00006800F01000C2
:1003D000102801D0FFE7F4E744F22851C4F20201EB
:1003E000086820F00F00086044F22C51C4F20201AA
:1003F00008684FF6FF729043086044F20041C4F26F
:100400000201086840F00F00086044F22041C4F285
:100410000201086820F00F00086044F21C51C4F289
:100420000201086840F00F00086070474EF20811A2
:10043000C4F20F01086840F020000860FFE74EF2A8
:100440000810C4F20F0000688006002801D4FFE7FE
:10045000F5E745F22851C4F20201086820F00E00C9
:10046000086045F22C51C4F2020108684FF6F072A0
:100470009043086045F20041C4F20201086840F070
:100480000E00086045F22041C4F20201086820F025
:100490000E00086045F21C51C4F20201086840F0E9
:1004A0000E00086045F23801C4F202010020086025
:1004B0007047000081B0ADF80200ADF80010BDF843
:1004C0000200013848F25801C4F202010860BDF888
:1004D0000000013848F25C01C4F20201086001B07A
:1004E000704700004EF20810C4F20F000068800749
:1004F000002814D4FFE74EF20811C4F20F01086877
:1005000040F002000860FFE74EF20810C4F20F004E
:1005100000688007002801D4FFE7F5E7FFE745F210
:100520002041C4F20001086840F0C000086045F2B4
:100530002C51C4F20001086820F07F400860086870
:1005400040F08840086045F21C51C4F20001086880
:1005500040F0C00008604EF24061C4F20F0108682C
:1005600040F0010008604EF26001C4F20F0108681B
:1005700020F4F010086048F24001C4F202010020AB
:10058000086048F26003C4F202031A6842F0C8022D
:100590001A6048F26403C4F202031A6840F6084C79
:1005A00042EA0C021A6048F25003C4F2020343F616
:1005B0007F621A6048F25802C4F20202106048F2E8
:1005C0005C02C4F202021060086840F0010008609A
:1005D00048F20801C4F20201086820F00300086034
:1005E0007047000081B08DF80300FFE74CF218005F
:1005F000C4F2000000688006002801D5FFE7F5E797
:100600009DF803004CF20001C4F20001086001B043
:1006100070470000FFE74DF21800C4F200000068C8
:10062000C006002801D5FFE7F5E74DF20000C4F24F
:1006300000000068C0B2704780B54EF20412C4F2E8
:100640000F02106840F0020010604EF20811C4F270
:100650000F01086840F002000860106840F00100D7
:100660001060086840F0010008604CF2300EC4F2DF
:10067000000EDEF8000020F00100CEF800004CF281
:100680002400C4F20000112202604CF22800C4F2DF
:1006900000004FF0170CC0F800C04CF22C01C4F25F
:1006A000000170200860DEF8001040F201331943A9
:1006B000CEF8001044F2204EC4F2000EDEF8001016
:1006C00041F00301CEF8001044F21C5EC4F2000EAB
:1006D000DEF8001041F00301CEF8001044F22C5E69
:1006E000C4F2000EDEF8001062F30701CEF800102D
:1006F00044F2285EC4F2000EDEF8001021F003017F
:10070000CEF800104DF23001C4F20001D1F800E043
:100710002EF0010EC1F800E04DF2240EC4F2000EDE
:10072000CEF800204DF2280EC4F2000ECEF800C024
:100730004DF22C0CC4F2000CCCF8000008681843F1
:10074000086045F22041C4F20001086840F003004F
:10075000086045F21C51C4F20001086840F0030033
:10076000086045F22C51C4F20001086862F30700EA
:10077000086045F22851C4F20001086820F0030027
:10078000086080BD80B588B000200790FFF754FF57
:1007900040F26001C2F2000142F6E060059008807C
:1007A000FFF744FEFFF704FEFFF79CFE059908469D
:1007B000FFF780FEFFE7FFF72DFF8DF81B009DF888
:1007C0001B00FFF70FFF0D20FFF70CFF0A20FFF7BC
:1007D00009FF9DF81B00423801460491332800F2BE
:1007E00014810499DFE811F058001101D2001101C1
:1007F0003400110111011101110111016D001101EC
:100800001101110111011101800049001101930032
:100810001101110111011101110111011101110148
:10082000110111011101110158001101D200110132
:100830003400110111011101110111016D001101AB
:1008400011011101110111018000490011019300F2
:1008500045F23801C4F202010820086044F23C016C
:10086000C4F202010F20086048F20801C4F202013C
:10087000086840F003000860C7E045F23801C4F2A0
:1008800002010020086048F20801C4F20201086871
:1008900020F003000860B8E045F23801C4F202011C
:1008A0000420086044F23C01C4F202010A200860FE
:1008B00048F20801C4F20201086840F00300086031
:1008C000A3E045F23801C4F202010A20086048F2B0
:1008D0000801C4F20201086840F0020008600868DC
:1008E00020F00100086090E045F23801C4F20201F6
:1008F0000620086048F20801C4F20201086820F0EE
:1009000002000860086840F0010008607DE040F2E5
:100910006000C2F20000008801460391B0F5965FC6
:100920000BD0FFE70398B0F5165F0ED0FFE70398F2
:1009300042F6E061884210D017E040F26201C2F254
:1009400000014FF4165008800FE040F26201C2F23D
:10095000000142F6E060088007E040F26201C2F266
:1009600000014FF475500880FFE740F26200C2F2C8
:100970000000029001880846FFF79CFD029800885D
:1009800040F26001C2F2000108803EE040F26000E7
:10099000C2F20000008801460191B0F5165F0BD04D
:1009A000FFE7019842F6E06188420DD0FFE7019829
:1009B000B0F5755F10D017E040F26201C2F200019D
:1009C0004FF4965008800FE040F26201C2F200013D
:1009D0004FF41650088007E040F26201C2F20001B5
:1009E00042F6E0600880FFE740F26200C2F20000D9
:1009F000009001880846FFF75DFD0098008840F2EE
:100A00006001C2F200010880FFE7D4E61C0A000082
:0C0A10000000002068040000C00200008C
:040000050000026D88
:00000001FF
