:030000000208AD46
:0C08AD00787FE4F6D8FD75810902080090
:10089D007597DE7597AD75A51075E34075A8202287
:100837005390FB5390FD8F80439001E4F508C3E587
:10084700089402748094805016E4F509C3E509946E
:10085700FF748094805004050980F1050880DF53F8
:0308670090FE22DE
:10086A004390045390FD8F80439001E4F508C3E55B
:10087A00089402748094805016E4F509C3E509943B
:10088A00FF748094805004050980F1050880DF53C5
:03089A0090FE22AB
:1008000012089D7F381208377F061208377F0E12B4
:1008100008377F011208377F4D12086A7F6112087E
:100820006A7F7212086A7F7712086A7F6912086A03
:070830007F6E12086A80FED2
:00000001FF
