:020000040000FA
:10000000680400206D02000071020000730200000D
:100010007502000077020000790200000000000075
:100020000000000000000000000000007B02000053
:100030007D020000000000007F020000C1050000FA
:10004000830200008302000083020000830200009C
:10005000830200008302000083020000830200008C
:10006000830200008302000083020000830200007C
:10007000830200008302000083020000830200006C
:10008000830200008302000083020000830200005C
:10009000830200008302000083020000830200004C
:1000A000830200008302000083020000830200003C
:1000B0008302000083020000B103000083020000FD
:1000C000830200008302000083020000830200001C
:1000D000830200008302000083020000830200000C
:1000E00083020000830200008302000083020000FC
:1000F00083020000830200008302000083020000EC
:1001000083020000830200008302000083020000DB
:1001100083020000830200008302000083020000CB
:1001200083020000830200008302000083020000BB
:1001300083020000830200008302000083020000AB
:1001400000000000000000000000000000000000AF
:10015000830200008302000083020000830200008B
:10016000000000000000000000000000000000008F
:10017000000000000000000000000000000000007F
:10018000000000000000000000000000000000006F
:10019000000000000000000000000000000000005F
:1001A000000000000000000000000000000000004F
:1001B000830200008302000083020000830200002B
:1001C000830200008302000083020000830200001B
:1001D000830200008302000083020000830200000B
:1001E00083020000830200008302000083020000FB
:1001F00083020000830200008302000083020000EB
:10020000830200008302000083020000000000005F
:1002100083020000830200008302000083020000CA
:1002200083020000830200008302000083020000BA
:1002300083020000830200008302000083020000AA
:10024000830200008302000083020000830200009A
:10025000830200008302000083020000830200008A
:1002600083020000830200008302000000F00AB84D
:10027000FEE7FEE7FEE7FEE7FEE7FEE7FEE7FEE756
:10028000FEE7FEE700F002F800F02CF80AA090E884
:10029000000C82448344AAF10107DA4501D100F041
:1002A00021F8AFF2090EBAE80F0013F0010F18BFE2
:1002B000FB1A43F0010318477C0600008C0600007F
:1002C0000023002400250026103A28BF78C1FBD85F
:1002D000520728BF30C148BF0B6070471FB51FBD14
:1002E00010B510BD00F029F81146FFF7F7FF00F038
:1002F000C5F900F047F803B4FFF7F2FF03BC00F0C4
:100300004FF8000072B6704762B67047EFF3108086
:1003100072B6704780F31088704730BF704702484C
:100320000249014A024B704768000020680400201F
:1003300068000020704770477047754600F02CF841
:10034000AE4605006946534620F00700854618B0C2
:1003500020B5FFF7E4FFBDE820404FF000064FF066
:1003600000074FF000084FF0000BAC46ACE8C009A6
:10037000ACE8C009ACE8C009ACE8C00921F007014D
:100380008D46704710B50446AFF300802046BDE8A7
:100390001040FFF7B0BF0000004870470000002089
:1003A00001491820ABBEFEE726000200704700009E
:1003B00080B545F21440C4F202000068C00700B3E3
:1003C000FFE745F21C41C4F202010120086040F23F
:1003D0006000C2F20000006800F0A8F9002249F2B3
:1003E0000043C4F2011300F090FA48B9FFE740F26D
:1003F0006001C2F20001086800F57A500860FFE76A
:10040000FFE745F21440C4F202000068C00600286D
:1004100019D5FFE745F21C41C4F202011020086023
:1004200040F26000C2F200000068B0F57A5F09D9BE
:10043000FFE740F26001C2F200010868A0F57A50BF
:100440000860FFE7FFE740F26000C2F200000168C9
:1004500047F20010C0F20200401A40F26401C2F2FA
:100460000001086080BD00004EF20811C4F20F01C7
:10047000086840F020000860FFE74EF20810C4F260
:100480000F00006800F02000202801D0FFE7F4E70B
:1004900040F26401C2F2000143F68000C0F20100A4
:1004A000086040F26001C2F20001086045F220518C
:1004B000C4F2020144F24B30C4F64F40086045F2EA
:1004C0002451C4F20201086840F01500086045F2AA
:1004D0002851C4F20201086820F01500086045F2B6
:1004E0002C51C4F2020108684FF2F002CFF6F0720C
:1004F0001040086045F20041C4F20201086840F073
:100500000400086045F2FC32C4F20202106820F0D8
:1005100004001060086820F01100086045F22041D6
:10052000C4F20201086820F01500086045F21C5171
:10053000C4F20201086840F01500086045F210514D
:10054000C4F20201086840F01100086045F204415D
:10055000C4F20201086820F01100086045F2084169
:10056000C4F20201086820F01100086045F20C4155
:10057000C4F20201086860F01100086045F21C41F5
:10058000C4F20201086840F01100086045F2104111
:10059000C4F20201086840F0110008604EF21C41EC
:1005A000CEF200010868022262F3575008604EF252
:1005B0000011CEF200014FF080400860704700004B
:1005C0004EF21001CEF20001086820F00100086030
:1005D00045F2FC30C4F20200016881F004010160C0
:1005E0000068400700280CD5FFE740F26400C2F223
:1005F0000000006801384EF21401CEF200010860DC
:100600000BE040F26000C2F20000006801384EF2D8
:100610001401CEF200010860FFE74EF21801CEF29D
:100620000001002008604EF21001CEF200010868BF
:1006300040F00100086070474EF21001CEF2000158
:10064000002008604EF21403CEF2000343F67F024E
:10065000C0F201021A604EF21802CEF200021060DF
:100660004EF62052CEF200021068022363F35F7050
:100670001060086840F007000860704780B582B0DD
:1006800000200190FFF73EFEFFF7EEFEFFF7D4FFDC
:10069000FFF73AFEFFE7FFF740FEFCE7491058BFBF
:1006A000C1F140415B1058BFC3F140438B42EFF3AF
:1006B0000080704751EA030C17D41CF5801F58BF07
:1006C000BCF5801F00F10680994218BF704708BF33
:1006D0009042704707D711F5801F58BF13F5801F50
:1006E00019D499427047894270471CF5801F08D57C
:1006F000BCF5801FF7D58B4218BF704708BF8242F8
:1007000070474FF4001C1CEB410F38BF1CEB430F2C
:1007100001D28B42704770B500F094F892244900E2
:100720004FF000514FF08053FFF7B8BFB0FA80F39D
:1007300010FA03F10AD0C3F11D0303F580634FEAF9
:1007400003524FEA415002EBD12170474FF00000B5
:100750007047000051EA030C17D41CF5801F58BFE6
:10076000BCF5801F00F10680994218BF704708BF92
:100770009042704707D711F5801F58BF13F5801FAF
:1007800019D499427047894270471CF5801F08D5DB
:10079000BCF5801FF7D58B4218BF704708BF824257
:1007A00070474FF4001C1CEB410F38BF1CEB430F8C
:1007B00001D28B42704770B500F044F89224490092
:1007C0004FF080514FF00053FFF768BF51EA030C20
:1007D00017D41CF5801F58BFBCF5801F00F10680A0
:1007E000994218BF704708BF9042704707D711F56C
:1007F000801F58BF13F5801F19D499427047894252
:1008000070471CF5801F08D5BCF5801FF7D58B42BB
:1008100018BF704708BF824270474FF4001C1CEBA2
:10082000410F38BF1CEB430F01D28B42704770B5AC
:1008300000F008F8922449004FF000514FF0805327
:10084000FFF72CBF0EF1020E2EF0030E5EF8046BC4
:10085000364205D4012A43EB030515F5001F12D8D3
:10086000012841EB010C1CF5001F0CD80ED14FEAFA
:10087000D17C0CEB4C0C0CF1020C15F5001F08BFE1
:100880004CEBD37C04E04FF0080C01E04FEAD37C42
:100890000CEB4C0526FA05F606F00706B6F1040C3B
:1008A00006D20EEB860CBDE870404CF0010C6047A0
:1008B000DFE80CF0090B02024FF00041A1F5002126
:1008C0004FF0000070BD19461046012851EB01049D
:1008D00018BFD4F5001484BF002001F0004170BDA2
:1008E00010B5FFF7E7FE0CBF0120002010BD10B5CA
:1008F000FFF7E0FE14BF0120002010BD10B5FFF788
:1009000029FF8CBF0120002010BD10B5FFF722FF8A
:100910002CBF0120002010BD10B5FFF757FF94BF7A
:100920000120002010BD10B5FFF750FF34BF01209B
:10093000002010BD440900000000002068040000F1
:04094000C0020000F1
:040000050000026D88
:00000001FF
