:020000040000FA
:10000000600400206D020000710200007302000015
:100010007502000077020000790200000000000075
:100020000000000000000000000000007B02000053
:100030007D020000000000007F020000810200003D
:10004000830200008302000083020000830200009C
:10005000830200008302000083020000830200008C
:10006000830200008302000083020000830200007C
:10007000830200008302000083020000830200006C
:10008000830200008302000083020000830200005C
:10009000830200008302000083020000830200004C
:1000A000830200008302000083020000830200003C
:1000B000830200008302000083020000830200002C
:1000C000830200008302000083020000830200001C
:1000D000830200008302000083020000830200000C
:1000E00083020000830200008302000083020000FC
:1000F00083020000830200008302000083020000EC
:1001000083020000830200008302000083020000DB
:1001100083020000830200008302000083020000CB
:1001200083020000830200008302000083020000BB
:1001300083020000830200008302000083020000AB
:1001400000000000000000000000000000000000AF
:10015000830200008302000083020000830200008B
:10016000000000000000000000000000000000008F
:10017000000000000000000000000000000000007F
:10018000000000000000000000000000000000006F
:10019000000000000000000000000000000000005F
:1001A000000000000000000000000000000000004F
:1001B000830200008302000083020000830200002B
:1001C000830200008302000083020000830200001B
:1001D000830200008302000083020000830200000B
:1001E00083020000830200008302000083020000FB
:1001F00083020000830200008302000083020000EB
:10020000830200008302000083020000000000005F
:1002100083020000830200008302000083020000CA
:1002200083020000830200008302000083020000BA
:1002300083020000830200008302000083020000AA
:10024000830200008302000083020000830200009A
:10025000830200008302000083020000830200008A
:1002600083020000830200008302000000F00AB84D
:10027000FEE7FEE7FEE7FEE7FEE7FEE7FEE7FEE756
:10028000FEE7FEE700F002F800F02CF80AA090E884
:10029000000C82448344AAF10107DA4501D100F041
:1002A00021F8AFF2090EBAE80F0013F0010F18BFE2
:1002B000FB1A43F001031847E8030000F8030000AD
:1002C0000023002400250026103A28BF78C1FBD85F
:1002D000520728BF30C148BF0B6070471FB51FBD14
:1002E00010B510BD00F029F81146FFF7F7FF00F038
:1002F0001FF900F047F803B4FFF7F2FF03BC00F06A
:100300004FF8000072B6704762B67047EFF3108086
:1003100072B6704780F31088704730BF704702484C
:100320000249014A024B704760000020600400202F
:1003300060000020704770477047754600F02CF849
:10034000AE4605006946534620F00700854618B0C2
:1003500020B5FFF7E4FFBDE820404FF000064FF066
:1003600000074FF000084FF0000BAC46ACE8C009A6
:10037000ACE8C009ACE8C009ACE8C00921F007014D
:100380008D46704710B50446AFF300802046BDE8A7
:100390001040FFF7B0BF0000004870470000002089
:1003A00001491820ABBEFEE726000200704700009E
:1003B00049F218110138C4F20201086070470000C8
:1003C0004EF20861C4F20F018A6B42F002028A63A6
:1003D0000A6842F020020A600A689206FCD54FF6CD
:1003E000F46C45F22C53CFF6FF7CC4F2020353F8B1
:1003F0000C20013842F0040243F80C201A684FF632
:10040000582C22F470621A601A68CFF6FF7C42F40E
:10041000A0621A6053F8042C22F0040243F8042C62
:1004200053F8102C42F0040243F8102C53F8242CFB
:1004300042F0060243F8242C51F80C30082262F3F3
:10044000544341F80C3049F20011C4F20201002279
:10045000C8230A600B6208618A61086840F00100E5
:10046000086051F8F80C40F0400041F8F80C704773
:1004700049F2DC010138C4F2020108607047000053
:1004800081B04EF26001C4F20F01D1F8E0254FF6C1
:10049000F46C42F00202C1F8E025D1F8A82545F23B
:1004A0002C5342F02002C1F8A825D1F8A825CFF698
:1004B000FF7C0092C4F2020353F80C20013842F092
:1004C000020243F80C201A6822F0F0021A601A683F
:1004D00042F050021A6053F8042C22F0020243F852
:1004E000042C53F8102C42F0020243F8102C0A6836
:1004F00040F6084342F480120A600A6822F460223F
:100500000A600A680A6049F2C001C4F202010022CE
:100510000A604B620861CA61086840F00100086027
:1005200051F8B80C40F0200041F8B80C01B0704709
:1005300082B043F2BC1942F21070C0F20C09FFF70E
:100540009FFF42F21070FFF73BFF4FF47A7842F2C0
:100550002837002604E000BF4FF47A7842F22837AB
:1005600000241FFA88F0FFF723FFB8B2FFF780FFDF
:10057000CDF80490019818B1019801380190F9E77D
:1005800001960198C0087C2807D800BF01980A305E
:1005900001900198B0F57A7FF8D308F57A78A7F53D
:1005A0007A77072C04F10104DBD342F228344FF4AC
:1005B0007A77002508E000BFA4F57A7407F57A770A
:1005C000072D05F101051BD2A0B2FFF7F1FEB8B26D
:1005D000FFF74EFFCDF80490019818B1019801384B
:1005E0000190F9E701960198C0087C28E4D800BF83
:1005F00001980A3001900198B0F57A7FF8D3DBE7D3
:100600004FF47A75002705E005F57A75072F07F195
:1006100001071DD2ACB22046FFF7CAFE2046FFF705
:1006200027FFCDF8049000BF019818B10198013858
:100630000190F9E701960198C0087C28E4D800BF32
:1006400001980A3001900198B0F57A7FF8D3DBE782
:1006500042F22835002706E0A5F57A75072F07F145
:100660000107BFF479AFACB22046FFF7A1FE2046E8
:10067000FFF7FEFECDF80490019818B101980138FB
:100680000190F9E701960198C0087C28E4D800BFE2
:1006900001980A3001900198B0F57A7FF8D3DBE732
:1006A000B00600000000002060040000C00200004E
:040000050000026D88
:00000001FF
