:020000040000FA
:10000000600400206D020000710200007302000015
:100010007502000077020000790200000000000075
:100020000000000000000000000000007B02000053
:100030007D020000000000007F020000810200003D
:10004000830200008302000083020000830200009C
:10005000830200008302000083020000830200008C
:10006000830200008302000083020000830200007C
:10007000830200008302000083020000830200006C
:10008000830200008302000083020000830200005C
:10009000830200008302000083020000830200004C
:1000A000830200008302000083020000830200003C
:1000B000830200008302000083020000830200002C
:1000C000830200008302000083020000830200001C
:1000D000830200008302000083020000830200000C
:1000E00083020000830200008302000083020000FC
:1000F00083020000830200008302000083020000EC
:1001000083020000830200008302000083020000DB
:1001100083020000830200008302000083020000CB
:1001200083020000830200008302000083020000BB
:1001300083020000830200008302000083020000AB
:1001400000000000000000000000000000000000AF
:10015000830200008302000083020000830200008B
:10016000000000000000000000000000000000008F
:10017000000000000000000000000000000000007F
:10018000000000000000000000000000000000006F
:10019000000000000000000000000000000000005F
:1001A000000000000000000000000000000000004F
:1001B000830200008302000083020000830200002B
:1001C000830200008302000083020000830200001B
:1001D000830200008302000083020000830200000B
:1001E00083020000830200008302000083020000FB
:1001F00083020000830200008302000083020000EB
:10020000830200008302000083020000000000005F
:1002100083020000830200008302000083020000CA
:1002200083020000830200008302000083020000BA
:1002300083020000830200008302000083020000AA
:10024000830200008302000083020000830200009A
:10025000830200008302000083020000830200008A
:1002600083020000830200008302000000F00AB84D
:10027000FEE7FEE7FEE7FEE7FEE7FEE7FEE7FEE756
:10028000FEE7FEE700F002F800F02CF80AA090E884
:10029000000C82448344AAF10107DA4501D100F041
:1002A00021F8AFF2090EBAE80F0013F0010F18BFE2
:1002B000FB1A43F001031847BC020000CC02000007
:1002C0000023002400250026103A28BF78C1FBD85F
:1002D000520728BF30C148BF0B6070471FB51FBD14
:1002E00010B510BD00F029F81146FFF7F7FF00F038
:1002F00029F900F047F803B4FFF7F2FF03BC00F060
:100300004FF8000072B6704762B67047EFF3108086
:1003100072B6704780F31088704730BF704702484C
:100320000249014A024B704760000020600400202F
:1003300060000020704770477047754600F02CF849
:10034000AE4605006946534620F00700854618B0C2
:1003500020B5FFF7E4FFBDE820404FF000064FF066
:1003600000074FF000084FF0000BAC46ACE8C009A6
:10037000ACE8C009ACE8C009ACE8C00921F007014D
:100380008D46704710B50446AFF300802046BDE8A7
:100390001040FFF7B0BF0000004870470000002089
:1003A00001491820ABBEFEE726000200704700009E
:1003B00081B04EF27001C4F20F010091086840F064
:1003C00000400860086840F4006008604EF2600277
:1003D000C4F20F02106820F4F8601060106800F595
:1003E000A8601060086820F0700008600868086065
:1003F000086820F400500860086840F080400860F9
:100400000868092262F39C500860FFE74EF2500032
:10041000C4F20F0000684006002801D4FFE7F5E7AA
:100420004EF27001C4F20F01086820F40060086009
:1004300001B070474EF20811C4F20F01086840F095
:1004400020000860FFE74EF20810C4F20F000068B9
:1004500000F02000202801D0FFE7F4E745F200413A
:10046000C4F20201086840F00200086045F2204131
:10047000C4F20201086820F00200086045F21C5135
:10048000C4F20201086840F00200086045F22C51F5
:10049000C4F20201086820F0F000086045F228511B
:1004A000C4F20201086840F00200086070470000D2
:1004B0004EF21001CEF20001002008604EF214034B
:1004C000CEF200036FF07F421A604EF21802CEF2B5
:1004D00000021060052008607047000083B00290A1
:1004E0004EF21800CEF2000000680090FFE700987E
:1004F0004EF21801CEF200010968401A20F07F4048
:100500000190FFE7019802998842F0D9FFE703B014
:100510007047000080B582B0019000200090FFE796
:100520000098019988420BD2FFE743F20050C0F2D5
:100530000C00FFF7D3FFFFE7009801300090EFE7D2
:1005400002B080BD80B582B000200190FFF772FF3D
:10055000FFF72EFFFFF7ACFFFFE745F2FC31C4F2D7
:100560000201086880F0020008600A20FFF7D2FF4D
:10057000F3E7000084050000000000206004000094
:04058000C0020000B5
:040000050000026D88
:00000001FF
