:020000040000FA
:10000000680400206D02000071020000730200000D
:100010007502000077020000790200000000000075
:100020000000000000000000000000007B02000053
:100030007D020000000000007F020000810200003D
:10004000830200008302000083020000830200009C
:10005000830200008302000083020000830200008C
:10006000830200008302000083020000830200007C
:10007000830200008302000083020000830200006C
:10008000830200008302000083020000830200005C
:10009000830200008302000083020000830200004C
:1000A000830200008302000083020000830200003C
:1000B0008302000083020000CD03000083020000E1
:1000C000830200008302000083020000830200001C
:1000D000830200008302000083020000830200000C
:1000E00083020000830200008302000083020000FC
:1000F00083020000830200008302000083020000EC
:1001000083020000830200008302000083020000DB
:1001100083020000830200008302000083020000CB
:1001200083020000830200008302000083020000BB
:1001300083020000830200008302000083020000AB
:1001400000000000000000000000000000000000AF
:10015000830200008302000083020000830200008B
:10016000000000000000000000000000000000008F
:10017000000000000000000000000000000000007F
:10018000000000000000000000000000000000006F
:10019000000000000000000000000000000000005F
:1001A000000000000000000000000000000000004F
:1001B000830200008302000083020000830200002B
:1001C000830200008302000083020000830200001B
:1001D000830200008302000083020000830200000B
:1001E00083020000830200008302000083020000FB
:1001F00083020000830200008302000083020000EB
:10020000830200008302000083020000000000005F
:1002100083020000830200008302000083020000CA
:1002200083020000830200008302000083020000BA
:1002300083020000830200008302000083020000AA
:10024000830200008302000083020000830200009A
:10025000830200008302000083020000830200008A
:1002600083020000830200008302000000F00AB84D
:10027000FEE7FEE7FEE7FEE7FEE7FEE7FEE7FEE756
:10028000FEE7FEE700F002F800F03AF80AA090E876
:10029000000C82448344AAF10107DA4501D100F041
:1002A0002FF8AFF2090EBAE80F0013F0010F18BFD4
:1002B000FB1A43F0010318475C0700007C070000AD
:1002C000103A24BF78C878C1FAD8520724BF30C882
:1002D00030C144BF04680C60704700000023002454
:1002E00000250026103A28BF78C1FBD8520728BF46
:1002F00030C148BF0B6070471FB51FBD10B510BDA2
:1003000000F029F81146FFF7F7FF00F05BFB00F063
:1003100047F803B4FFF7F2FF03BC00F04FF800000A
:1003200072B6704762B67047EFF3108072B67047CE
:1003300080F31088704730BF704702480249014A75
:10034000024B70476800002068040020680000200D
:10035000704770477047754600F02CF8AE460500B0
:100360006946534620F00700854618B020B5FFF7D0
:10037000E4FFBDE820404FF000064FF000074FF0CB
:1003800000084FF0000BAC46ACE8C009ACE8C0096F
:10039000ACE8C009ACE8C00921F007018D46704700
:1003A00010B50446AFF300802046BDE81040FFF7CB
:1003B000B0BF000000487047080000200149182025
:1003C000ABBEFEE7260002007047000080B584B097
:1003D00047F25800C0F202000390FFE7039820B1F3
:1003E000FFE7039801380390F8E745F21440C4F2A0
:1003F00002000068C007002844D0FFE745F21C4116
:10040000C4F202010120086044F23C00C4F2020080
:1004100000680F2816D1FFE744F23C01C4F2020144
:100420000A20086040F20000C2F2000000880128A3
:1004300007D0FFE745F2FC31C4F202010420086056
:10044000FFE71EE044F23C00C4F2020000680A2804
:1004500016D1FFE744F23C01C4F202010F2008600C
:1004600040F20000C2F200000088012807D0FFE738
:1004700045F2FC31C4F2020108200860FFE7FFE703
:10048000FFE7FFE745F21440C4F202000068C0062F
:10049000002840F18480FFE745F21C41C4F20201CC
:1004A0001020086040F20000C2F2000000880146FF
:1004B0000291012811D0FFE7029840F6AC51884222
:1004C00013D0FFE7029841F27071884215D0FFE720
:1004D0000298B0F5FA5F18D01FE040F20001C2F2B6
:1004E000000140F6AC5008801EE040F20001C2F26C
:1004F000000141F27070088016E040F20001C2F283
:1005000000014FF4FA5008800EE040F20001C2F200
:10051000000142F24860088006E040F20001C2F2A9
:10052000000101200880FFE740F20000C2F2000055
:10053000008801281FD0FFE744F23C00C4F202000B
:1005400000680F2807D1FFE745F2FC31C4F2020131
:1005500008200860FFE744F23C00C4F20200006893
:100560000A2807D1FFE745F2FC31C4F2020104205A
:100570000860FFE706E045F2FC31C4F20201022008
:100580000860FFE740F20000C2F20000019000881E
:1005900000F04AF80198008800F0CEF8FFE704B0B8
:1005A00080BD000081B04EF27001C4F20F010091D5
:1005B000086840F000400860086840F40060086087
:1005C0004EF26002C4F20F02106820F4F86010606E
:1005D000106800F5A8601060086820F070000860DE
:1005E00008680860086820F400500860086840F057
:1005F000804008600868072262F39C500860FFE7AB
:100600004EF25000C4F20F0000684006002801D4EA
:10061000FFE7F5E74EF27001C4F20F01086820F41D
:100620000060086001B0704781B0ADF80200BDF80D
:100630000200013848F25801C4F20201086001B01A
:100640007047000081B0ADF802004EF24061C4F284
:100650000F01086840F0010008604EF20861C4F222
:100660000F01086840F002000860FFE74EF20860E2
:10067000C4F20F0000688007002801D4FFE7F5E707
:1006800045F22041C4F20001086840F040000860D3
:1006900045F22C51C4F20001086820F07060086037
:1006A000086840F08060086045F22851C4F20001FB
:1006B000086820F04000086045F21C51C4F20001B7
:1006C000086840F04000086045F20851C4F200019B
:1006D000086840F0C00008604EF26001C4F20F01EB
:1006E0000868082262F35440086048F24001C4F2EE
:1006F00002010020086048F26003C4F20203C8222D
:100700001A60BDF80220013A48F25003C4F2020315
:100710001A6048F25802C4F202021060086840F001
:100720000100086048F20801C4F20201086840F0C4
:100730000100086001B0704781B0ADF80200BDF85B
:100740000200013848F25C01C4F20201086001B005
:100750007047000082B0ADF806004EF24061C4F26E
:100760000F01086840F0010008604EF20860C4F212
:100770000F00016841F0020101600068009045F23D
:100780002041C4F20001086840F08000086045F292
:100790002C51C4F20001086820F07040086008681D
:1007A00040F08040086045F22851C4F2000108681A
:1007B00020F08000086045F21C51C4F20001086876
:1007C00040F0800008604EF26001C4F20F0108683A
:1007D00040F480100860086820F460200860086811
:1007E000086048F24001C4F202010020086048F2AB
:1007F0006403C4F2020340F608421A60BDF8062002
:10080000013A48F25003C4F202031A6048F25C0253
:10081000C4F202021060086840F00100086048F26B
:100820000801C4F20201086840F00200086002B04A
:10083000704700004EF20811C4F20F01086840F042
:1008400010000860FFE74EF20810C4F20F000068C5
:1008500000F01000102801D0FFE7F4E744F228511F
:10086000C4F20201086820F00F00086044F22C5125
:10087000C4F2020108684FF6FF729043086044F228
:100880000041C4F20201086840F00F00086044F221
:100890002041C4F20201086820F00F00086044F211
:1008A0001C51C4F20201086840F00F000860704754
:1008B00081B04EF20810C4F20F00016841F020012F
:1008C00001600068009045F22051C4F2020144F238
:1008D0004B30C4F64F40086045F22451C4F2020187
:1008E000086840F01F00086045F20041C4F20201B0
:1008F000086820F011000860086840F00E000860E9
:1009000045F22041C4F20201086820F0110008609D
:1009100045F21C51C4F20201086840F01F00086053
:1009200045F22C51C4F2020108686FF3130008600D
:1009300045F22851C4F20201086820F01F00086047
:1009400045F21051C4F20201086840F0110008603D
:1009500045F20441C4F20201086820F01100086069
:1009600045F20841C4F20201086820F01100086055
:1009700045F20C41C4F20201086840F01100086021
:1009800045F21C41C4F202011120086045F21041F9
:10099000C4F20201086840F0110008604EF21C41E8
:1009A000CEF200010868022262F3575008604EF24E
:1009B0000011CEF20001086840F08040086001B0EC
:1009C0007047000080B584B000200390FFF7A8FCBA
:1009D000FFF7E8FD42F210700190FFF733FE019837
:1009E000FFF7B8FEFFF726FFFFF762FFFFF79AFC5D
:1009F00044F23C01C4F202010F2008600120029081
:100A0000FFF712FE0298FFF797FEFFE7FFF793FC50
:100A1000FCE70000340A0000000000200400000091
:100A2000C0020000380A0000080000206004000036
:080A3000DC02000001000000DF
:040000050000026D88
:00000001FF
