:020000040000FA
:10000000600400206D020000710200007302000015
:100010007502000077020000790200000000000075
:100020000000000000000000000000007B02000053
:100030007D020000000000007F020000810200003D
:10004000830200008302000083020000830200009C
:10005000830200008302000083020000830200008C
:10006000830200008302000083020000830200007C
:10007000830200008302000083020000830200006C
:10008000830200008302000083020000830200005C
:10009000830200008302000083020000830200004C
:1000A000830200008302000083020000830200003C
:1000B000830200008302000083020000830200002C
:1000C000830200008302000083020000830200001C
:1000D000830200008302000083020000830200000C
:1000E00083020000830200008302000083020000FC
:1000F00083020000830200008302000083020000EC
:1001000083020000830200008302000083020000DB
:1001100083020000830200008302000083020000CB
:1001200083020000830200008302000083020000BB
:1001300083020000830200008302000083020000AB
:1001400000000000000000000000000000000000AF
:10015000830200008302000083020000830200008B
:10016000000000000000000000000000000000008F
:10017000000000000000000000000000000000007F
:10018000000000000000000000000000000000006F
:10019000000000000000000000000000000000005F
:1001A000000000000000000000000000000000004F
:1001B000830200008302000083020000830200002B
:1001C000830200008302000083020000830200001B
:1001D000830200008302000083020000830200000B
:1001E00083020000830200008302000083020000FB
:1001F00083020000830200008302000083020000EB
:10020000830200008302000083020000000000005F
:1002100083020000830200008302000083020000CA
:1002200083020000830200008302000083020000BA
:1002300083020000830200008302000083020000AA
:10024000830200008302000083020000830200009A
:10025000830200008302000083020000830200008A
:1002600083020000830200008302000000F00AB84D
:10027000FEE7FEE7FEE7FEE7FEE7FEE7FEE7FEE756
:10028000FEE7FEE700F002F800F02CF80AA090E884
:10029000000C82448344AAF10107DA4501D100F041
:1002A00021F8AFF2090EBAE80F0013F0010F18BFE2
:1002B000FB1A43F0010318474002000050020000FF
:1002C0000023002400250026103A28BF78C1FBD85F
:1002D000520728BF30C148BF0B6070471FB51FBD14
:1002E00010B510BD00F029F81146FFF7F7FF00F038
:1002F000D7F800F047F803B4FFF7F2FF03BC00F0B3
:100300004FF8000072B6704762B67047EFF3108086
:1003100072B6704780F31088704730BF704702484C
:100320000249014A024B704760000020600400202F
:1003300060000020704770477047754600F02CF849
:10034000AE4605006946534620F00700854618B0C2
:1003500020B5FFF7E4FFBDE820404FF000064FF066
:1003600000074FF000084FF0000BAC46ACE8C009A6
:10037000ACE8C009ACE8C009ACE8C00921F007014D
:100380008D46704710B50446AFF300802046BDE8A7
:100390001040FFF7B0BF0000004870470000002089
:1003A00001491820ABBEFEE726000200704700009E
:1003B00081B043F2BC10C0F20C000090FFE700983F
:1003C00020B1FFE7009801380090F8E70020009086
:1003D000FFE70098C0087C2805D8FFE7FFE70098F2
:1003E0000A300090F5E701B0704700004EF20811A6
:1003F000C4F20F01086840F020000860FFE74EF2E9
:100400000810C4F20F00006800F02000202801D07E
:10041000FFE7F4E745F22051C4F2020144F24B3009
:10042000C4F64F40086045F22451C4F20201086846
:1004300040F01F00086045F22851C4F2020108682C
:1004400020F01F00086045F22C51C4F20201086838
:100450006FF31300086045F20041C4F2020108681E
:1004600020F011000860086840F00E00086045F2B6
:100470002041C4F20201086820F01F00086045F224
:100480001051C4F20201086840F01100086045F202
:100490001C51C4F20201086840F01F000860704758
:1004A00080B582B000200190FFF7A0FFFFE745F282
:1004B000FC30C4F20200006800F0100000900098C8
:1004C00038B9FFE745F2FC31C4F2020108200860A8
:1004D00006E045F2FC31C4F2020102200860FFE7A9
:1004E000FFF766FF45F2FC31C4F202010420086008
:1004F000FFF75EFFDBE700000805000000000020BA
:0805000060040000C0020000CD
:040000050000026D88
:00000001FF
