:020000040000FA
:10000000A00400206D0200007102000073020000D5
:100010007502000077020000790200000000000075
:100020000000000000000000000000007B02000053
:100030007D020000000000007F020000810200003D
:10004000830200008302000083020000830200009C
:10005000830200008302000083020000830200008C
:10006000830200008302000083020000830200007C
:10007000830200008302000083020000830200006C
:10008000830200008302000083020000830200005C
:10009000830200008302000083020000830200004C
:1000A000830200008302000083020000830200003C
:1000B000830200008302000083020000830200002C
:1000C000830200008302000083020000830200001C
:1000D000830200008302000083020000830200000C
:1000E00083020000830200008302000083020000FC
:1000F00083020000830200008302000083020000EC
:1001000083020000830200008302000083020000DB
:1001100083020000830200008302000083020000CB
:1001200083020000830200008302000083020000BB
:1001300083020000830200008302000083020000AB
:1001400000000000000000000000000000000000AF
:10015000830200008302000083020000830200008B
:10016000000000000000000000000000000000008F
:10017000000000000000000000000000000000007F
:10018000000000000000000000000000000000006F
:10019000000000000000000000000000000000005F
:1001A000000000000000000000000000000000004F
:1001B000830200008302000083020000830200002B
:1001C000830200008302000083020000830200001B
:1001D000830200008302000083020000830200000B
:1001E00083020000830200008302000083020000FB
:1001F00083020000830200008302000083020000EB
:10020000830200008302000083020000000000005F
:1002100083020000830200008302000083020000CA
:1002200083020000830200008302000083020000BA
:1002300083020000830200008302000083020000AA
:10024000830200008302000083020000830200009A
:10025000830200008302000083020000830200008A
:1002600083020000830200008302000000F00AB84D
:10027000FEE7FEE7FEE7FEE7FEE7FEE7FEE7FEE756
:10028000FEE7FEE700F002F800F02CF80AA090E884
:10029000000C82448344AAF10107DA4501D100F041
:1002A00021F8AFF2090EBAE80F0013F0010F18BFE2
:1002B000FB1A43F001031847E0050000F0050000B9
:1002C0000023002400250026103A28BF78C1FBD85F
:1002D000520728BF30C148BF0B6070471FB51FBD14
:1002E00010B510BD00F029F81146FFF7F7FF00F038
:1002F000F9F900F047F803B4FFF7F2FF03BC00F090
:100300004FF8000072B6704762B67047EFF3108086
:1003100072B6704780F31088704730BF704702484C
:100320000249014A024B7047A0000020A0040020AF
:10033000A0000020704770477047754600F02CF809
:10034000AE4605006946534620F00700854618B0C2
:1003500020B5FFF7E4FFBDE820404FF000064FF066
:1003600000074FF000084FF0000BAC46ACE8C009A6
:10037000ACE8C009ACE8C009ACE8C00921F007014D
:100380008D46704710B50446AFF300802046BDE8A7
:100390001040FFF7B0BF0000004870470000002089
:1003A00001491820ABBEFEE726000200704700009E
:1003B000FFE74DF21800C4F200000068C0060028F4
:1003C00001D5FFE7F5E74DF20000C4F20000006838
:1003D000C0B2704780B582B0019000208DF8030054
:1003E000FFE7FFF7E5FF01999DF8032088549DF88A
:1003F000030001308DF80300FFE701999DF8030029
:10040000084410F8010C0A28EBD1FFE79DF803001F
:1004100002388DF8030001999DF8032000208854CC
:1004200002B080BD4EF20411C4F20F01086840F022
:10043000020008604EF20811C4F20F01086840F093
:10044000020008604DF23001C4F20001086820F09B
:10045000010008604DF22402C4F200021A2010606C
:100460004DF22802C4F20002032010604DF22C026B
:10047000C4F2000270201060086840F2013210439C
:10048000086045F22041C4F20001086840F0030012
:10049000086045F21C51C4F20001086840F00300F6
:1004A000086045F22C51C4F200010868112262F381
:1004B0000700086045F22851C4F20001086820F0E6
:1004C000030008607047000081B08DF80300FFE76B
:1004D0004DF21800C4F2000000688006002801D523
:1004E000FFE7F5E79DF803004DF20001C4F20001BB
:1004F000086001B07047000080B582B00190FFE74E
:100500000198007840B1FFE701980078FFF7DCFF21
:10051000019801300190F3E702B080BDFFE74CF293
:100520001800C4F200000068C006002801D5FFE7EB
:10053000F5E74CF20000C4F200000068C0B270475A
:1005400080B584B00390ADF80A100020ADF8080023
:10055000FFF7E4FF8DF80700FFE79DF907000D287E
:1005600034D0FFE79DF90700082811D1FFE7BDF857
:10057000080060B1FFE7039801380390BDF8080058
:100580000138ADF80800082000F082F8FFE718E015
:10059000BDF80800BDF80A10884211DAFFE79DF89F
:1005A000070003990870039801300390BDF8080014
:1005B0000130ADF808009DF8070000F069F8FFE78A
:1005C000FFE7FFF7ABFF8DF80700C6E703990020B0
:1005D0000870BDF8080004B080BD00004EF20411A0
:1005E000C4F20F01086840F0010008604EF20811E3
:1005F000C4F20F01086840F0010008604CF23001BD
:10060000C4F20001086820F0010008604CF22402E6
:10061000C4F200021A2010604CF22802C4F2000258
:10062000032010604CF22C02C4F200027020106013
:10063000086840F201321043086044F22041C4F2DD
:100640000001086840F00300086044F21C51C4F245
:100650000001086840F00300086044F22C51C4F225
:1006600000010868112262F30700086044F2285173
:10067000C4F20001086820F0030008607047000021
:1006800080B50D2000F004F80A2000F001F880BDCC
:1006900081B08DF80300FFE74CF21800C4F20000AF
:1006A00000688006002801D5FFE7F5E79DF8030004
:1006B0004CF20001C4F20001086001B07047000074
:1006C00080B582B00190FFE70198007840B1FFE764
:1006D00001980078FFF7DCFF019801300190F3E703
:1006E00002B080BD80B584B000200390FFF776FF94
:1006F000FFF798FE40F67200C0F20000FFF7E0FF3F
:1007000040F60B00C0F20000FFF7DAFF40F2E370A2
:10071000C0F20000FFF7D4FF40F2B270C0F2000058
:10072000FFF7CEFF40F64B00C0F20000FFF7C8FF16
:10073000FFE740F26000C2F2000002901E21FFF7C6
:10074000FFFE0298FFF7D8FE40F69400C0F20000CA
:10075000FFF7D2FEFFE74DF21800C4F20000006878
:100760000007002801D5FFE7F5E740F27E00C2F25E
:1007700000000190FFF72EFEFFF782FF0198FFF7C0
:100780009FFF40F26000C2F20000C0793F280DD107
:10079000FFE740F27E00C2F200000090FFF71AFE71
:1007A000FFF76EFF0098FFF78BFFFFE7FFF768FF8B
:1007B000BFE73E3E3E2054797065202741542720F4
:1007C000616E6420666F6C6C6F7765642077697406
:1007D00068206120636F6D6D616E642E203C3C3C2F
:1007E0000D0A003E3E3E20596F7520617265206102
:1007F00074202741542720636F6D6D616E64206DF6
:100800006F64652E203C3C3C0D0A003E3E3E205469
:1008100068697320697320746865207365747570E6
:100820002070726F6772616D20666F722048432D71
:10083000303520426C7565746F6F7468206D6F641D
:10084000756C652E203C3C3C0D0A003E3E3E20452A
:1008500078616D706C653A2041542B4E414D4520B6
:100860003D20596F7572204E616D65203C3C3C0DFA
:100870000A003E3E3E2057656C636F6D6520746FC5
:100880002053657269616C205465726D696E616C8C
:100890002E3C3C3C0D0A0000A8080000000000208F
:0808A000A0040000C0020000EA
:040000050000026D88
:00000001FF
