:020000040000FA
:10000000700400206D020000710200007302000005
:100010007502000077020000790200000000000075
:100020000000000000000000000000007B02000053
:100030007D020000000000007F020000D1050000EA
:10004000830200008302000083020000830200009C
:10005000830200008302000083020000830200008C
:10006000830200008302000083020000830200007C
:10007000830200008302000083020000830200006C
:10008000830200008302000083020000830200005C
:10009000830200008302000083020000830200004C
:1000A000830200008302000083020000830200003C
:1000B0008302000083020000D103000083020000DD
:1000C000830200008302000083020000830200001C
:1000D000830200008302000083020000830200000C
:1000E00083020000830200008302000083020000FC
:1000F00083020000830200008302000083020000EC
:1001000083020000830200008302000083020000DB
:1001100083020000830200008302000083020000CB
:1001200083020000830200008302000083020000BB
:1001300083020000830200008302000083020000AB
:1001400000000000000000000000000000000000AF
:10015000830200008302000083020000830200008B
:10016000000000000000000000000000000000008F
:10017000000000000000000000000000000000007F
:10018000000000000000000000000000000000006F
:10019000000000000000000000000000000000005F
:1001A000000000000000000000000000000000004F
:1001B000830200008302000083020000830200002B
:1001C000830200008302000083020000830200001B
:1001D000830200008302000083020000830200000B
:1001E00083020000830200008302000083020000FB
:1001F00083020000830200008302000083020000EB
:10020000830200008302000083020000000000005F
:1002100083020000830200008302000083020000CA
:1002200083020000830200008302000083020000BA
:1002300083020000830200008302000083020000AA
:10024000830200008302000083020000830200009A
:10025000830200008302000083020000830200008A
:1002600083020000830200008302000000F00AB84D
:10027000FEE7FEE7FEE7FEE7FEE7FEE7FEE7FEE756
:10028000FEE7FEE700F002F800F02CF80AA090E884
:10029000000C82448344AAF10107DA4501D100F041
:1002A00021F8AFF2090EBAE80F0013F0010F18BFE2
:1002B000FB1A43F0010318476407000074070000AD
:1002C0000023002400250026103A28BF78C1FBD85F
:1002D000520728BF30C148BF0B6070471FB51FBD14
:1002E00010B510BD00F029F81146FFF7F7FF00F038
:1002F000CBF900F047F803B4FFF7F2FF03BC00F0BE
:100300004FF8000072B6704762B67047EFF3108086
:1003100072B6704780F31088704730BF704702484C
:100320000249014A024B704770000020700400200F
:1003300070000020704770477047754600F02CF839
:10034000AE4605006946534620F00700854618B0C2
:1003500020B5FFF7E4FFBDE820404FF000064FF066
:1003600000074FF000084FF0000BAC46ACE8C009A6
:10037000ACE8C009ACE8C009ACE8C00921F007014D
:100380008D46704710B50446AFF300802046BDE8A7
:100390001040FFF7B0BF0000004870470000002089
:1003A00001491820ABBEFEE726000200704700009E
:1003B00081B047F25800C0F202000090FFE70098B9
:1003C00020B1FFE7009801380090F8E701B07047CE
:1003D00080B545F21440C4F202000068C00600284F
:1003E0001AD5FFE740F26C01C2F20001012008605B
:1003F00045F21C41C4F202011020086040F268007E
:10040000C2F20000006818B1FFE700F023FA02E032
:1004100000F02AFAFFE7FFE745F21440C4F20200B9
:100420000068C00770B1FFE740F26C01C2F2000142
:100430000120086045F21C41C4F20201086000F08E
:100440003DF9FFE780BD000081B04EF20810C4F214
:100450000F00016841F0010101600068009044F262
:100460002C51C4F20001086820F47040086044F286
:100470002851C4F20001086820F00800086044F226
:100480000041C4F20001086840F00800086044F22E
:100490002041C4F20001086820F00800086044F21E
:1004A0001C51C4F20001086840F00800086044F2E2
:1004B0000851C4F20001086840F00800086001B06B
:1004C0007047000081B04EF20810C4F20F000168BE
:1004D00041F0200101600068009045F22051C4F213
:1004E000020144F24B30C4F64F40086045F22451FB
:1004F000C4F20201086840F01100086045F228517A
:10050000C4F20201086820F01100086045F22C5185
:10051000C4F20201086820F00F10086045F20041A3
:10052000C4F20201086820F01100086045F2204181
:10053000C4F20201086820F01100086045F21C5165
:10054000C4F20201086840F01100086045F2105141
:10055000C4F20201086840F01100086045F204414D
:10056000C4F20201086820F01100086045F2084159
:10057000C4F20201086820F01100086045F20C4145
:10058000C4F20201086820F01100086045F21C4125
:10059000C4F202011120086045F21041C4F20201C8
:1005A000086840F0110008604EF21C41CEF20001D4
:1005B000086840F0004020F4600008604EF200112E
:1005C000CEF20001086840F08040086001B070473A
:1005D0004EF21001CEF20001086820F00100086020
:1005E00044F22002C4F20002106880F0080010609B
:1005F0004EF21802CEF2000200201060086840F0AF
:1006000001000860704700004EF21001CEF20001B8
:10061000002008604EF62052CEF2000210684023FF
:1006200063F31F601060086840F0060008607047C0
:1006300081B00090009801384EF21401CEF2000112
:1006400008604EF21801CEF200010020086001B0EF
:10065000704700004EF21001CEF20001086840F031
:1006600001000860704700004EF21001CEF2000158
:10067000086820F0010008607047000040F2680040
:10068000C2F200000078704780B582B0002001906F
:10069000FFF738FEFFF7D8FEFFF7B6FFFFF712FFB0
:1006A000FFF732FEFFE7FFF7E9FF18B1FFE700F0C1
:1006B00023F802E0FFF731FEFFE7F4E740F26C01B8
:1006C000C2F200010020086040F26401C2F20001A1
:1006D000087040F26000C2F2000001680131016060
:1006E0000068032807D3FFE740F26001C2F200016F
:1006F00000200860FFE7704780B582B040F26401D7
:10070000C2F2000100200870FFE740F26000C2F270
:100710000000006840F69C02C0F20002642100FB69
:10072000012040F26401C2F20001097800EB4100AF
:1007300041780020019051B1FFE740F26C00C2F215
:1007400000000068B0FA80F040090190FFE70198CE
:10075000C007002879D0FFE740F26800C2F200002D
:10076000006818B9FFE7FFF77FFF71E040F2600013
:10077000C2F20000006840F69C02C0F20002642150
:1007800000FB012040F26401C2F20001097810F878
:100790001100FF2803D1FFE7FFF766FF1DE040F2DD
:1007A0006000C2F20000006840F69C02C0F2000245
:1007B000642100FB012040F26401C2F200010978CB
:1007C00010F8111040F6C810C0F2000050F82100D7
:1007D000FFF72EFFFFF73EFFFFE740F26501C2F291
:1007E000000100200870FFE740F26500C2F200003F
:1007F000007840F26001C2F20001096840F69C03F3
:10080000C0F20003642201FB023140F26402C2F232
:100810000002127801EB4201497888420BDAFFE7C7
:10082000FFF7C6FDFFE740F26501C2F2000108785C
:1008300001300870D8E7FFF717FF40F26401C2F2F9
:1008400000010878013008705FE7FFF7B1FDFFE7AE
:1008500002B080BD80B5FFF707FF40F26801C2F229
:1008600000010020086080BD80B540F26401C2F242
:1008700000010020087040F26C01C2F20001086023
:1008800040F26001C2F200010860FFF7E3FE40F2AF
:100890006801C2F200010120086080BD0B020B025A
:1008A0000C040B040E040D04FF040B020B020C04D9
:1008B0000B040F040E04FF040B020B0212041004BD
:1008C0000E040D040C08FF041102110210040E04A2
:1008D0000F040E08000000000000000000000000EF
:1008E0000000000000000000000000000000000008
:1008F00000000000000000000000000000000000F8
:1009000002040104000401040204020402080104B8
:1009100001040108020404040408020401040004A0
:100920000104020402040208010401040204010497
:1009300000080000000000000000000000000000AF
:1009400000000000000000000000000000000000A7
:100950000000000000000000000000000000000097
:10096000000000000004000404040404050405045D
:10097000040803040304020402040104010400083F
:10098000040404040304030402040204010804042C
:100990000404030403040204020401080004000424
:1009A0000404040405040504040803040304020405
:1009B000020401040104000800000000000000001F
:1009C0000000000000000000467700004B6A0000B5
:1009D000B25E00008B590000B84F000006470000CF
:1009E000423F0000B93B000035350000672F000092
:1009F000BE2C0000DC27000083230000A31F0000A2
:100A0000DD1D00009A1A0000B31700005F160000F9
:100A1000EE130000C1110000D20F00002C0A0000EC
:0C0A20000000002070040000C002000074
:040000050000026D88
:00000001FF
