:020000040000FA
:10000000600400206D020000710200007302000015
:100010007502000077020000790200000000000075
:100020000000000000000000000000007B02000053
:100030007D020000000000007F0200004D0400006F
:10004000830200008302000083020000830200009C
:10005000830200008302000083020000830200008C
:10006000830200008302000083020000830200007C
:10007000830200008302000083020000830200006C
:10008000830200008302000083020000830200005C
:10009000830200008302000083020000830200004C
:1000A000830200008302000083020000830200003C
:1000B000830200008302000083020000830200002C
:1000C000830200008302000083020000830200001C
:1000D000830200008302000083020000830200000C
:1000E00083020000830200008302000083020000FC
:1000F00083020000830200008302000083020000EC
:1001000083020000830200008302000083020000DB
:1001100083020000830200008302000083020000CB
:1001200083020000830200008302000083020000BB
:1001300083020000830200008302000083020000AB
:1001400000000000000000000000000000000000AF
:10015000830200008302000083020000830200008B
:10016000000000000000000000000000000000008F
:10017000000000000000000000000000000000007F
:10018000000000000000000000000000000000006F
:10019000000000000000000000000000000000005F
:1001A000000000000000000000000000000000004F
:1001B000830200008302000083020000830200002B
:1001C000830200008302000083020000830200001B
:1001D000830200008302000083020000830200000B
:1001E00083020000830200008302000083020000FB
:1001F00083020000830200008302000083020000EB
:10020000830200008302000083020000000000005F
:1002100083020000830200008302000083020000CA
:1002200083020000830200008302000083020000BA
:1002300083020000830200008302000083020000AA
:10024000830200008302000083020000830200009A
:10025000830200008302000083020000830200008A
:1002600083020000830200008302000000F00AB84D
:10027000FEE7FEE7FEE7FEE7FEE7FEE7FEE7FEE756
:10028000FEE7FEE700F002F800F02CF80AA090E884
:10029000000C82448344AAF10107DA4501D100F041
:1002A00021F8AFF2090EBAE80F0013F0010F18BFE2
:1002B000FB1A43F001031847B0030000C00300001D
:1002C0000023002400250026103A28BF78C1FBD85F
:1002D000520728BF30C148BF0B6070471FB51FBD14
:1002E00010B510BD00F029F81146FFF7F7FF00F038
:1002F00003F900F047F803B4FFF7F2FF03BC00F086
:100300004FF8000072B6704762B67047EFF3108086
:1003100072B6704780F31088704730BF704702484C
:100320000249014A024B704760000020600400202F
:1003300060000020704770477047754600F02CF849
:10034000AE4605006946534620F00700854618B0C2
:1003500020B5FFF7E4FFBDE820404FF000064FF066
:1003600000074FF000084FF0000BAC46ACE8C009A6
:10037000ACE8C009ACE8C009ACE8C00921F007014D
:100380008D46704710B50446AFF300802046BDE8A7
:100390001040FFF7B0BF0000004870470000002089
:1003A00001491820ABBEFEE726000200704700009E
:1003B00081B047F25800C0F202000090FFE70098B9
:1003C00020B1FFE7009801380090F8E701B07047CE
:1003D00081B04EF20810C4F20F00016841F0010133
:1003E00001600068009044F22C51C4F200010868DA
:1003F00020F47060086044F22851C4F200010868DB
:1004000020F00400086044F20041C4F200010868D2
:1004100040F00400086044F22041C4F20001086882
:1004200020F00400086044F21C51C4F20001086886
:1004300040F00400086044F20851C4F2000108686A
:1004400040F00400086001B0704700004EF2100157
:10045000CEF20001086820F00100086044F21002AA
:10046000C4F20002106880F0040010604EF218021E
:10047000CEF2000200201060086840F00100086021
:10048000704700004EF21001CEF20001002008601B
:100490004EF62052CEF200021068402363F31F6034
:1004A0001060086840F006000860704781B0009056
:1004B000009801384EF21401CEF2000108604EF2AD
:1004C0001801CEF200010020086001B07047000062
:1004D0004EF21001CEF20001086840F00100086001
:1004E000704700004EF21001CEF20001086820F0C3
:1004F000010008607047000080B582B000200190C4
:10050000FFF766FFFFF7BEFFFFF7FEFEFFE740F2D3
:10051000D850C0F2000000F001F8F8E780B582B0D2
:10052000019000208DF80300FFE701989DF803106B
:1005300000EB41004078D8B3FFE701989DF8031025
:1005400010F81100FF2803D1FFE7FFF7CBFF0FE002
:1005500001989DF8031010F8111040F21460C0F2D9
:10056000000050F82100FFF7A1FFFFF7B1FFFFE700
:1005700000208DF80200FFE79DF8020001999DF828
:10058000032001EB42014978884209DAFFE7FFF7CF
:100590000FFFFFE79DF8020001308DF80200EBE746
:1005A000FFF7A0FF9DF8030001308DF80300BCE7C2
:1005B00000208DF80200FFE79DF802000E2809DCFC
:1005C000FFE7FFF7F5FEFFE79DF8020001308DF829
:1005D0000200F1E702B080BD040204020504040435
:1005E00007040604FF0404020402050404040804CA
:1005F0000704FF04040204020B04090407040604B0
:100600000508FF040A020A0209040704080407088F
:1006100000000000467700004B6A0000B25E000058
:100620008B590000B84F000006470000423F000011
:10063000B93B000035350000672F0000BE2C0000DC
:10064000DC27000083230000A31F0000DD1D000045
:100650009A1A0000B31700005F160000EE130000A6
:10066000C1110000D20F0000780600000000002039
:0806700060040000C00200005C
:040000050000026D88
:00000001FF
